:100000000C943D000C945A000C945A000C945A0025
:100010000C945A000C945A000C945A000C945A00F8
:100020000C945A000C945A000C945A000C94BA0286
:100030000C945A000C945A000C94F40F0C945A002F
:100040000C945A000C945A000C945A000C945A00C8
:100050000C945A000C945A000C945A000C945A00B8
:100060000C945A000C945A00252000636D20002047
:10007000003A20000A202020200011241FBECFEFCC
:10008000D8E0DEBFCDBF11E0A0E0B1E0E2EDF4E2E8
:1000900002C005900D92AE31B107D9F721E0AEE173
:1000A000B1E001C01D92A934B207E1F70E943610F9
:1000B0000C9467120C940000559A569A579A08951A
:1000C0005F9A8AE18A95F1F700C05F988AE18A9584
:1000D000F1F700C0089527E030E090E0AC01022E77
:1000E00002C0559547950A94E2F740FF0FC05D9A0C
:1000F0005E9A4AE14A95F1F700C05E984AE14A9556
:10010000F1F700C02150310948F708955D98F0CF0C
:10011000CF93DF9300D000D0CDB7DEB7262F853642
:10012000910510F084E690E06AE070E00E94A11072
:10013000CB0101966BE070E00E94A11040E050E01E
:10014000BA01815030F0440F551F661F771F416080
:10015000F8CFDB01CA0104C0880F991FAA1FBB1F7B
:100160002A95D2F7BC01CD010F900F900F900F9000
:10017000DF91CF91089530E020E090E0682F70E0AB
:10018000AB01022E02C0559547950A94E2F74170E3
:10019000990F942B2F5F3F4F2830310589F7892F16
:1001A0000895CF92DF92EF92FF920F931F93CF9318
:1001B000DF9300D000D0CDB7DEB71A821982042FAA
:1001C00010E02AE0C22ED12CE12CF12C29813A81B9
:1001D000201731076CF4A70196010E94B510B901F0
:1001E000CA0129813A812F5F3F4F3A832983EECF9D
:1001F0002AE030E040E050E00E94B51069837A8345
:100200008B839C83E981FA81EE5FFE4F80810F90A2
:100210000F900F900F90DF91CF911F910F91FF9052
:10022000EF90DF90CF900895CF92DF92EF92FF9200
:10023000CF93DF9300D000D0CDB7DEB780913201ED
:100240009091330167E00E9488006B017C018091EE
:100250003201909133019C0150E040E029833A83C0
:100260004B835C8342E069817A818B819C810E940F
:10027000D100C82A8D2D0E94BB000E946B008C2DDE
:100280000E946B0080913201909133019C0150E0FB
:1002900040E029833A834B835C8341E069817A8122
:1002A0008B819C810E94D1000E946B008091320161
:1002B000909133019C0150E040E029833A834B83C5
:1002C0005C8340E069817A818B819C810E94D100AE
:1002D0000E946B00E0FE0DC05C9A0F900F900F9093
:1002E0000F90DF91CF91FF90EF90DF90CF900C9423
:1002F00060005C98F2CFCF93DF93CDB7DEB72D9738
:100300000FB6F894DEBF0FBECDBFCE0101960E949E
:1003100084056AE070E00E94A1107093350160933B
:10032000340180913401909135019C0150E040E00E
:100330002A873B874C875D87CA01B9010E94C70D98
:100340008BE690E00E94B10D8091340190913501CF
:100350002D960FB6F894DEBF0FBECDBFDF91CF91C3
:1003600008959B01FC0170E060E090E080E062177E
:10037000730739F041915191840F951F6F5F7F4F43
:10038000F6CF0E94A110CB0108952F923F924F9279
:100390005F926F927F928F929F92AF92BF92CF9215
:1003A000DF92EF92FF920F931F93CF93DF9300D0D2
:1003B00000D000D0CDB7DEB78EE191E09A8389837B
:1003C000A981BA81A253B14071F00E947B019C01C6
:1003D00081608F3F9F41A1F3A981BA812D933D9305
:1003E000BA83A983EDCF6AE070E08EE191E00E94CC
:1003F000B1012C01712C612C0EE111E0F12CE12CEA
:10040000EFEFEE1AFE0A1E830D838D819E81A1E01F
:1004100080339A0709F440C0F801C080D180DC0124
:100420001296AD90BC90D301C2018C199D09A1090F
:10043000B10989839A83AB83BC83BC01CD010E943F
:100440002D111B014C01D301C2018A199B09A1097D
:10045000B10989839A83AB83BC83BC01CD010E941F
:100460002D119B01AC0129823A828B829C82698189
:100470007A818B819C810E94B71118163CF4D801B7
:10048000AD92BC92ED81FE81D382C2828D819E812C
:1004900002969E838D83B9CF0E5F1F4FBAE0EB1695
:1004A000F10409F0ADCF65E070E08EE191E02696B1
:1004B0000FB6F894DEBF0FBECDBFDF91CF911F9175
:1004C0000F91FF90EF90DF90CF90BF90AF909F90F3
:1004D0008F907F906F905F904F903F902F900C94F3
:1004E000B1018093B40008958BE08093810082EE87
:1004F00094E0909389008093880082E080936F005D
:100500000895539A83E28093B00081E08093B10014
:100510001092B40008950E948A0DE1ECF0E0808111
:100520008F7E808382E08AB9549A0E941F0F0E94B6
:10053000CB0F0E9474020E9481020E945C0078949A
:1005400008959091010180910101953610F4843154
:1005500028F4809100018195809300018091000131
:1005600090910101890F8093010180910101809395
:10057000B40008951F920F920FB60F9211242F937B
:100580003F934F935F936F937F938F939F93AF931B
:10059000BF93EF93FF930E94A102FF91EF91BF9150
:1005A000AF919F918F917F916F915F914F913F910B
:1005B0002F910F900FBE0F901F9018950F931F93C0
:1005C0000097B9F00197B0E0A0E050E040E08C0166
:1005D0009D010027012B022B032B39F0B695A7951F
:1005E000979587954F5F5F4FF2CF342F2227822B4D
:1005F000932B1F910F910895CF93DF93D82FC62F80
:1006000080910C010E94250F8D2F0E94870F8C2F47
:100610000E94870FDF91CF910C947B0F1F93CF9394
:10062000DF93182FEB0180910C010E94250F812F81
:100630000E94870F8D2F0E94870F8C2F0E94870F9B
:10064000DF91CF911F910C947B0FFF920F931F931B
:10065000CF93DF93F82EEA01162F072F80910C011C
:100660000E94250F8F2D0E94870F802F0E94870FD9
:10067000812F0E94870F8D2F0E94870F8C2F0E9441
:10068000870FDF91CF911F910F91FF900C947B0FFB
:10069000CF93C82F80910C010E94250F8C2F0E94B0
:1006A000870F80910C0181600E94790F0E94AE0F2C
:1006B000C82F0E947B0F8C2FCF910895CF93DF938B
:1006C000C82F80910C010E94250F8C2F0E94870F4C
:1006D00080910C0181600E94790F0E949E0FC82FAB
:1006E000D0E0DC2FCC270E94AE0FC82B0E947B0FDE
:1006F000CE01DF91CF910895CF92DF92EF92FF92DA
:10070000CF93DF9300D000D0CDB7DEB7898380913F
:100710000C010E94250F89810E94870F80910C0196
:1007200081600E94790F0E949E0F90E0B0E0A0E0EF
:10073000F82EEE24DD24CC240E949E0FE82A0E948D
:100740009E0F89830E94AE0FC82AD701C601298156
:10075000922B89839A83AB83BC830E947B0F698130
:100760007A818B819C810F900F900F900F90DF9179
:10077000CF91FF90EF90DF90CF900895FF920F936D
:100780001F93CF93DF93C82FF62E072F142F80913E
:100790000C010E94250F8C2F0E94870F115040F0F2
:1007A000CF2DD02F89910E94870FFC2E0D2FF6CFD1
:1007B000DF91CF911F910F91FF900C947B0FEF92DF
:1007C000FF920F931F93CF93DF93082FEB01142F0A
:1007D00080910C010E94250F802F0E94870F80912D
:1007E0000C0181600E94790F112379F07E018FEF57
:1007F000E81AF80A123030F00E949E0F88831150D8
:10080000E701F2CF0E94AE0FF9CFDF91CF911F9198
:100810000F91FF90EF900C947B0FCF93C82F682F10
:1008200066958AE80E94FC02C0930C01CF9108955E
:1008300080910C0108950F931F93CF93DF9300D005
:1008400000D000D0CDB7DEB78B018E839D8320E032
:1008500030E0A90169831A838B839C8369817A8143
:100860008B819C810E94F91087FD2FC028EB3EEF01
:100870004FEF53E469817A818B819C810E94B7118B
:1008800018161CF120E030E040E053E469817A81E1
:100890008B819C810E94BC1169837A838B839C83AA
:1008A00069817A818B819C810E94FE1084E40E9480
:1008B0000E0381E026960FB6F894DEBF0FBECDBFC3
:1008C000DF91CF911F910F91089580E0F3CFCF93E7
:1008D000DF9300D000D0CDB7DEB784E40E945E0382
:1008E0009C0150E040E029833A834B835C83CA013A
:1008F000B9010E942D1120E030E040E05CE3698303
:100900007A838B839C8369817A818B819C810E940D
:10091000BC1169837A838B839C8369817A818B8103
:100920009C810F900F900F900F90DF91CF910895C1
:100930009C0180E52115310521F02130310531F48C
:1009400080E70E9448038F5F880F08958FEF089516
:10095000CF92DF92EF92FF926B017C0161E080E821
:100960000E94FC0261E08FEF0E94FC0260E080E0E8
:100970000E94FC0260913E0181E90E94FC0261E05C
:1009800080E00E94FC0260E08FEF0E94FC0260E0C9
:1009900080E80E94FC0262E0C114D104E104F10489
:1009A00091F088EF0E945E03DC01892B31F0A701F2
:1009B00096010E94D7106B017C01B701A60184E06B
:1009C0000E94250364E080E0FF90EF90DF90CF90DD
:1009D0000C94FC0261E080E00E94FC0261E08FEF79
:1009E0000E94FC0260E080E00E94FC0260E081E97D
:1009F0000E94FC0261E080E00E94FC0260E08FEF58
:100A00000C94FC02EF92FF920F931F93CF93DF930E
:100A1000CDB7DEB760970FB6F894DEBF0FBECDBF7F
:100A20007C010E94D40F7093400160933F0183E1E9
:100A30000E944803877079F58091420190914301AB
:100A4000892BA9F30E94D40F6D877E878F87988B9F
:100A500080913F01909140012D853E85281B390BE7
:100A6000C901209142013091430128173907F8F656
:100A700081E0809341010FEF1FEFC80160960FB630
:100A8000F894DEBF0FBECDBFDF91CF911F910F91C4
:100A9000FF90EF900895E114F10449F48EE10E9473
:100AA0005E038C0161E08BE00E94FC02E6CF4CE02B
:100AB000BE016F5F7F4F84E10E94DF03898190E078
:100AC00023E0959587952A95E1F7F70180878B813B
:100AD0009C81982789279827978386838F8198857B
:100AE0009827892798279383828389859A859827D1
:100AF00089279827958384830B851C8510270127D8
:100B0000102711830083CECFCF93DF9300D000D086
:100B100000D0CDB7DEB78E839D8361E080E80E9470
:100B2000FC0261E08FEF0E94FC0260E080E00E9426
:100B3000FC0260913E0181E90E94FC0261E080E0DC
:100B40000E94FC0260E08FEF0E94FC0260E080E8FF
:100B50000E94FC0261E080E00E94FC020E94D40F2F
:100B60007093400160933F0180E00E94480380FF42
:100B70002AC08091420190914301892BA9F30E94E0
:100B8000D40F69837A838B839C8380913F019091FA
:100B9000400129813A81281B390BC901209142016A
:100BA0003091430128173907F8F681E0809341011D
:100BB0008FEF9FEF26960FB6F894DEBF0FBECDBF26
:100BC000DF91CF9108958E819D8126960FB6F8947E
:100BD000DEBF0FBECDBFDF91CF910C940205809197
:100BE0004101109241010895909343018093420185
:100BF000089580914201909143010895EF92FF92F0
:100C00000F931F93CF93DF9300D000D00F92CDB7F7
:100C1000DEB77C018B0161E080E80E94FC0261E0AC
:100C20008FEF0E94FC0260E080E00E94FC0266E020
:100C30008FEF0E94FC0283E80E944803682F6460E3
:100C400083E80E94FC0267E08FEF0E94FC0261E0F3
:100C500081E80E94FC0261E080E80E94FC026BE6F1
:100C600084E90E94FC0260E083E80E94FC020E948A
:100C7000D40F7093400160933F0183E80E944803C2
:100C80008D83811129C08091420190914301892B6C
:100C9000A1F30E94D40F69837A838B839C83809114
:100CA0003F019091400129813A81281B390BC901EC
:100CB000209142013091430128173907F0F68D81C8
:100CC0000F900F900F900F900F90DF91CF911F9189
:100CD0000F91FF90EF90089561E083E80E94FC027D
:100CE00082E90E944803982F9F77F7019083881F1D
:100CF0008827881FF801808360E081E80E94FC0259
:100D000066E08FEF0E94FC0283E80E944803682F90
:100D10006B7F83E80E94FC0261E08FEF0E94FC027F
:100D200061E080E00E94FC0260E08FEF0E94FC0224
:100D300060E080E80E94FC02F1E0FD83C0CFCF9329
:100D4000DF93EC0181E00E94480384FB992790F92E
:100D5000988383FB992790F99A8382FB992790F9CE
:100D6000998386FB992790F99B83881F8827881F82
:100D70008C83DF91CF9108954F925F926F927F9213
:100D80008F929F92AF92BF92EF92FF920F931F9319
:100D9000CF93DF93CDB7DEB72A970FB6F894DEBFB7
:100DA0000FBECDBF8C0169877A8790E080E00E94FA
:100DB000980490E0A985BA858D939C9386E40E945F
:100DC0004803E82EF12CBFEFEB1AFB0AE985FA8500
:100DD000F582E482A081B0E020E03FE24AE350E007
:100DE0000E94D710DC01CB018C509E4FAF4FBF4FFC
:100DF00089839A83AB83BC8338EE832E33E0932EB2
:100E0000A12CB12CBC01CD01A50194010E94B5100B
:100E1000D7010E94E2106D837E838F83988740ED17
:100E2000442E47E0542E612C712C69817A818B818C
:100E30009C81A30192010E94B5108D819E81AF819A
:100E4000B885820F931FA41FB51F8D839E83AF8328
:100E5000B887BC01CD01A50194010E94B510A985F8
:100E6000BA851A962D933D934D935C931D9781E51A
:100E70000E945E03E82EF12C02C0EE0CFF1C9A9536
:100E8000E2F7BFEFEB1AFB0AE985FA85F782E68203
:100E9000A081B0E020E03FE24AE350E00E94D7109A
:100EA000DC01CB018C509E4FAF4FBF4F89839A839B
:100EB000AB83BC83BC01CD01A50194010E94B51098
:100EC000D7010E94D7106D837E838F8398876981B5
:100ED0007A818B819C81A30192010E94B5108D8142
:100EE0009E81AF81B885820F931FA41FB51F8D838C
:100EF0009E83AF83B887BC01CD01A50194010E94F8
:100F0000B510A985BA851E962D933D934D935C939C
:100F1000519780E70E9448038F5F880F90E0E98532
:100F2000FA859383828381E70E945E03292F90E0F4
:100F300002C0880F991F2A95E2F70196A985BA8504
:100F400019969C938E931897F8012381222351F0D0
:100F500016962D913C911797821B930B19969C9393
:100F60008E931897E985FA85A281B0E020E03FE2F0
:100F70004AE350E00E94D710DC01CB018C509E4F19
:100F8000AF4FBF4F89839A83AB83BC8328EE822EF9
:100F900023E0922EA12CB12CBC01CD01A50194011E
:100FA0000E94B510E985FA85A085B1850E94D71009
:100FB0006D837E838F83988769817A818B819C8101
:100FC00020ED37E040E050E00E94B5108D819E8119
:100FD000AF81B885820F931FA41FB51FBC01CD013F
:100FE000A50194010E94B510A985BA8552962D934A
:100FF0003D934D935C9355972A960FB6F894DEBFB8
:101000000FBECDBFDF91CF911F910F91FF90EF9059
:10101000BF90AF909F908F907F906F905F904F9018
:1010200008958F929F92AF92BF92CF92DF92EF92EC
:10103000FF921F93CF93DF93CDB7DEB7A3970FB681
:10104000F894DEBF0FBECDBF4B015C0120E28216DB
:101050002EE49206A104B10408F4CCC0CE01479658
:101060000E949F06BE016F5F7F4FCE0147960E9490
:10107000BC068F89882309F4ABC08B859C85AD8520
:10108000BE858A5C944FAF4FBF4F298D222309F450
:10109000A4C04B855C856D857E854E545D4F6F4F3A
:1010A0007F4F440F551F661F771F840F951FA61F84
:1010B000B71F1A8D112361F04F85588969897A8984
:1010C0004C565D4F6F4F7F4F840F951FA61FB71F64
:1010D0002B8D222309F469C06C017D0126E2C20E2A
:1010E00022E0D21EE11CF11C8C149D04AE04BF044E
:1010F00008F480C0AB81B0E020E03FE24AE350E07A
:101100000E94D710DC01CB018C509E4FAF4FBF4FD8
:101110008C8F9D8FAE8FBF8FA50194012C193D0937
:101120004E095F09A8EEB3E00E94D71068A379A327
:101130008AA39BA36C8D7D8D8E8D9F8D20ED37E0D6
:1011400040E050E00E94B51088A199A1AAA1BBA1DE
:10115000820F931FA41FB51F88A399A3AAA3BBA3A3
:101160006C8D7D8D8E8D9F8D28EE33E040E050E0BC
:101170000E94B51068A179A18AA19BA10E94B51017
:10118000C901112321F08F819885820F931F0E943E
:10119000DE02BC0181E70E940E0380923A01909228
:1011A0003B01A0923C01B0923D0181E0A3960FB6B5
:1011B000F894DEBF0FBECDBFDF91CF911F91FF909E
:1011C000EF90DF90CF90BF90AF909F908F90089559
:1011D00088EE98E0A0E0B0E058CF288D222309F4F3
:1011E00068CF4B855C856D857E854C565D4F6F4F16
:1011F0007F4F5BCF80E0DACF0F931F93CF93DF93C6
:10120000CDB7DEB76B970FB6F894DEBF0FBECDBF7C
:10121000CE0147960E949F06BE016F5F7F4FCE01B1
:1012200047960E94BC068F89882309F44DC06B85C0
:101230007C858D859E856C57724F8F4F9F4F298D72
:10124000222309F446C00B851C852D853E850E544E
:101250001D4F2F4F3F4F000F111F221F331F600FD5
:10126000711F821F931F2A8D222361F00F85188919
:1012700029893A890C561D4F2F4F3F4F600F711F20
:10128000821F931F2B8D222361F00B891C892D89CE
:101290003E890A5D1D4F2F4F3F4F600F711F821F08
:1012A000931F60933A0170933B0180933C019093AC
:1012B0003D016B960FB6F894DEBF0FBECDBFDF9138
:1012C000CF911F910F91089566E37BE080E090E05D
:1012D000B6CF288D222339F20B851C852D853E85BE
:1012E0000C561D4F2F4F3F4FBACFCF93DF9300D0F7
:1012F00000D00F92CDB7DEB7682F616080E00E940A
:10130000FC020E94D40F7093400160933F0183E17F
:101310000E94480387708D83811125C0809142010E
:1013200090914301892B99F30E94D40F69837A83AA
:101330008B839C8380913F019091400129813A8168
:10134000281B390BC9012091420130914301281714
:101350003907E8F68D810F900F900F900F900F9046
:10136000DF91CF91089561E08BE00E94FC0260E084
:1013700080E00E94FC0231E03D83ECCF0F931F938D
:10138000CF93DF93CDB7DEB72C970FB6F894DEBFBF
:101390000FBECDBF882341F089E80E944803682F23
:1013A000616089E80E94FC0260E088E80E94FC021B
:1013B00061E080E80E94FC0261E08FEF0E94FC0285
:1013C00060E080E00E94FC0281E90E944803809373
:1013D0003E0161E080E00E94FC0260E08FEF0E942D
:1013E000FC0260E080E80E94FC0280E60E94480364
:1013F000682F626180E60E94FC0260E270E084E493
:101400000E940E036FEF81E00E94FC02BE01695F43
:101410007F4FCE0108960E94FE0581110CC080E02E
:101420002C960FB6F894DEBF0FBECDBFDF91CF91E3
:101430001F910F91089546E0BE016F5F7F4F80EBD3
:101440000E94DF0361E08FEF0E94FC0260E08FE406
:101450000E94FC026CE28EE40E94FC0260E08FEFCE
:101460000E94FC0264EB86EB0E94FC029F819111BA
:101470009CE0B88580E0A0E001E010E0482F4695B0
:101480004695469550E021E030E02C0F3D1F240F9B
:10149000351FF9012081682F6770891710F0BA1382
:1014A0009FC1E1E0F0E0EC0FFD1F4E0F5F1FF80160
:1014B00002C0EE0FFF1F6A95E2F7BF016095262379
:1014C000FA0120838F5F8033C9F646E0BE016F5F6B
:1014D0007F4F80EB0E94BE0361E08FEF0E94FC0211
:1014E00060E080E00E94FC0260E08FEF0E94FC025E
:1014F00060E089E00E94FC0260E080E10E94FC0262
:1015000060E081E10E94FC0261E084E20E94FC0252
:101510006FEF85E20E94FC0260E085E70E94FC021A
:1015200061E08FEF0E94FC026CE28EE40E94FC02FC
:1015300060E088E40E94FC0260E280E30E94FC021A
:1015400060E08FEF0E94FC0269E080E30E94FC02F1
:1015500060E084E50E94FC0264E081E30E94FC02FA
:1015600063E082E30E94FC0263E880E40E94FC02E4
:1015700065E286E40E94FC0260E080E60E94FC02D4
:1015800060E087E20E94FC0266E080E50E94FC02C7
:1015900060E081E50E94FC0266E982E50E94FC02AF
:1015A00068E086E50E94FC0260E387E50E94FC0299
:1015B00060E081E60E94FC0260E082E60E94FC029C
:1015C00060E084E60E94FC0260E085E60E94FC0286
:1015D00060EA86E60E94FC0261E08FEF0E94FC0256
:1015E00062E382E20E94FC0264E187E40E94FC0262
:1015F0006FEF89E40E94FC0260E08AE40E94FC0232
:1016000060E08FEF0E94FC026AE08AE70E94FC0221
:1016100060E08BE70E94FC0261E288E70E94FC0226
:1016200061E08FEF0E94FC0264E383E20E94FC020F
:1016300060E082E40E94FC026FEF84E40E94FC02FE
:1016400066E285E40E94FC0265E086E40E94FC02FA
:1016500060E480E40E94FC0266E08EE00E94FC02EE
:101660006AE180E20E94FC0260E483E40E94FC02E2
:1016700060E08FEF0E94FC0263E084E30E94FC02C2
:1016800064E485E30E94FC0261E08FEF0E94FC02AB
:1016900064E081E30E94FC0269E08BE40E94FC02AA
:1016A00065E08CE40E94FC0264E08DE40E94FC0290
:1016B00060E08FEF0E94FC0260E084E40E94FC0284
:1016C00060E285E40E94FC0268E087E40E94FC027C
:1016D00068E288E40E94FC0260E087E60E94FC0267
:1016E00064E080E70E94FC0261E081E70E94FC0266
:1016F0006EEF82E70E94FC0260E086E70E94FC0237
:1017000060E087E70E94FC0261E08FEF0E94FC022C
:1017100061E08DE00E94FC0260E08FEF0E94FC021D
:1017200061E080E80E94FC0268EF81E00E94FC0218
:1017300061E08FEF0E94FC0261E08EE80E94FC02F3
:1017400061E080E00E94FC0260E08FEF0E94FC02FA
:1017500060E080E80E94FC0264E08AE00E94FC02F3
:1017600084E80E944803682F6F7E84E80E94FC0290
:1017700061E08BE00E94FC020E94FC0860933A0149
:1017800070933B0180933C0190933D0168EE81E0B2
:101790000E94FC0280913A0190913B01A0913C0192
:1017A000B0913D01BC01CD010E94110861E081E0D2
:1017B0000E94FC0280E40E947509882309F42FCE60
:1017C00062E081E00E94FC0280E00E9475098823AB
:1017D00009F425CE68EE81E00E94FC0281E020CE73
:1017E00030E002C0359527956A95E2F720FF6ACE72
:1017F000AF5F68CE8F929F92AF92BF92CF92DF92EF
:10180000EF92FF920F931F93CF93DF93CDB7DEB785
:10181000A3970FB6F894DEBF0FBECDBF7C01162F85
:10182000062F06950150CE0147960E949F06BE01E5
:101830006F5F7F4FCE0147960E94BC06E114F10412
:1018400009F0B3C0103109F4AEC040F41C3009F403
:10185000A8C060E31E3029F080E090C060E512313E
:10186000D9F787E50E94FC0268E086E50E94FC0249
:10187000602F80E50E94FC02A12FB0E020E03FE253
:101880004AE350E00E94D710DC01CB018C509E4F00
:10189000AF4FBF4F8C8F9D8FAE8FBF8FBC01CD01DF
:1018A00028EE33E040E050E00E94B51049015A01B3
:1018B0006C8D7D8D8E8D9F8D20ED37E040E050E06A
:1018C0000E94B51069017A012F85388949895A89A2
:1018D000A8EEB3E00E94D710DC01CB018C0D9D1D5A
:1018E000AE1DBF1D8C8F9D8FAE8FBF8FBC01CD01F4
:1018F000A50194010E94B510C9010E94DE02BC013D
:1019000081E50E940E032B853C854D855E85A8EE02
:10191000B3E00E94D710DC01CB018C0D9D1DAE1DE4
:10192000BF1DBC01CD01A50194010E94B51021305D
:1019300091E0390710F020E031E06FEF620F86E4AC
:101940000E94FC0280913A0190913B01A0913C01E0
:10195000B0913D01BC01CD010E94110881E00E94BF
:101960004803182F62E081E00E94FC0280E00E94A0
:101970007509612F81E00E94FC0281E0A3960FB6F9
:10198000F894DEBF0FBECDBFDF91CF911F910F91B5
:10199000FF90EF90DF90CF90BF90AF909F908F908F
:1019A000089568E15ECF60E45CCFEA94EF2809F027
:1019B00053CF1C3009F4A0C0D8F4183051F11A30BC
:1019C00009F04ACF68E288E40E94FC0268E087E4FC
:1019D0000E94FC0263E082E30E94FC0269E080E373
:1019E0000E94FC0261E08FEF0E94FC0260E226C0D0
:1019F0001E3009F031CF68E488E40E94FC0268E000
:101A000087E40E94FC0263E082E30E94FC0267E03C
:101A1000E6CF60E188E40E94FC0268E087E40E946F
:101A2000FC0262E082E30E94FC026CE080E30E9420
:101A3000FC0261E08FEF0E94FC0260E380E30E9401
:101A4000FC0260E08FEF0E94FC02602F80E70E94A2
:101A5000FC02A12FB0E020E03FE24AE350E00E9408
:101A6000D710DC01CB018C509E4FAF4FBF4F8C8FF6
:101A70009D8FAE8FBF8F2B893C894D895E89A8EEE3
:101A8000B3E00E94D71068A379A38AA39BA36C8DAF
:101A90007D8D8E8D9F8D20ED37E040E050E00E94DF
:101AA000B51088A199A1AAA1BBA1820F931FA41F61
:101AB000B51F88A399A3AAA3BBA36C8D7D8D8E8D22
:101AC0009F8D28EE33E040E050E00E94B51068A101
:101AD00079A18AA19BA10E94B510C9016A8D6623D4
:101AE00021F08F819885820F931F0E94DE02BC0136
:101AF00081E70E940E0326CF68E388E40E94FC027F
:101B000068E087E40E94FC0263E082E30E94FC023A
:101B100068E065CFE4E6F0E080818D7F8083E1ECD2
:101B2000F0E08081886180831092C50088E0809316
:101B3000C400E0ECF0E080818260808308959091A1
:101B4000C00095FFFCCF8093C60008959FE9980FD1
:101B5000963010F48755089580538A3008F08FEF3F
:101B600008951F93CF93DF93EC01FE01149111238D
:101B700051F0812F0E949F0D1A3019F48DE00E94C0
:101B80009F0D2196F2CFDF91CF911F9108958F92F3
:101B90009F92AF92BF92EF92FF920F931F93CF93BA
:101BA000DF93CDB7DEB72E970FB6F894DEBF0FBE2A
:101BB000CDBF6B877C878D879E878E010F5F1F4F00
:101BC00078018AE0882E912CA12CB12C8B859C85E4
:101BD000AD85BE85892B8A2B8B2B19F4E016F10677
:101BE00081F46B857C858D859E85A50194010E947D
:101BF000B510D8016D938D012B873C874D875E878B
:101C0000E5CFF80182918F01805D0E949F0DE01663
:101C1000F106B9F72E960FB6F894DEBF0FBECDBF12
:101C2000DF91CF911F910F91FF90EF90BF90AF90F8
:101C30009F908F9008958F929F92AF92BF92CF9274
:101C4000DF92EF92FF92CF93DF9300D000D000D0CD
:101C5000CDB7DEB76B017C01842F90E09E838D832E
:101C600088248394912C042E02C0880C991C0A9419
:101C7000E2F791E0891A9108092C000CAA08BB0828
:101C8000D701CB0104C0B695A795979587954A953E
:101C9000D2F7BC01CD010E94C70D8EE20E949F0DBC
:101CA000A50194012C213D214E215F2121153105F3
:101CB00041055105F1F0AAE0B0E00E94D710698318
:101CC0007A838B839C83DC01CB010D8004C0B695A5
:101CD000A795979587950A94D2F7805D0E949F0DEE
:101CE00029813A814B815C81282139214A215B215C
:101CF000DDCF26960FB6F894DEBF0FBECDBFDF91C5
:101D0000CF91FF90EF90DF90CF90BF90AF909F90DA
:101D10008F900895CF92DF92EF92FF92CF93DF934F
:101D20006B017C01842F8150990BEC01CC0FDD1FDE
:101D3000CC0FDD1FD7FD16C0D701C6010C2E04C085
:101D4000B695A795979587950A94D2F78F7099279E
:101D5000AA27BB27835F9E4FFC0180810E949F0DB5
:101D60002497E8CFDF91CF91FF90EF90DF90CF9055
:101D70000895EF92FF920F931F93CF93DF93CDB708
:101D8000DEB72A970FB6F894DEBF0FBECDBF8C0129
:101D90007B0119821A821B821C8289819A818E158D
:101DA0009F0508F03FC021E1E216F10498F08F7022
:101DB0009927892B79F484E790E00E94B10D44E0E3
:101DC00069817A818B819C810E948A0E81E790E0F3
:101DD0000E94B10D09871A87A985BA858D91BA87A6
:101DE000A987282F30E050E040E02D833E834F83C9
:101DF000588742E06D817E818F8198850E948A0E8E
:101E00008FE690E00E94B10D89819A81AB81BC81FF
:101E10000196A11DB11D89839A83AB83BC8309857B
:101E20001A85BBCF2A960FB6F894DEBF0FBECDBF82
:101E3000DF91CF911F910F91FF90EF900895109235
:101E4000B90082E08093B800089594EA9093BC00B2
:101E50002FEF3FEF2150310911F481E00895909167
:101E6000BC0097FFF7CF9091B900987F983011F0A0
:101E7000903199F78093BB0084E88093BC008FEF8A
:101E80009FEF019751F32091BC0027FFFACF90916B
:101E9000B900987F983119F081E0903411F480E016
:101EA0000895089524EA34E844E92093BC00909111
:101EB000BC0097FFFCCF9091B900987F983011F04B
:101EC000903199F78093BB003093BC009091BC0097
:101ED00097FFFCCF9091B900987F903211F0983520
:101EE00039F44093BC009091BC0094FDFCCFDDCF51
:101EF00008950C94250F84E98093BC008FEF9FEF29
:101F0000019721F02091BC0024FDFACF0895809321
:101F1000BB0084E88093BC008FEF9FEF019761F0D6
:101F20002091BC0027FFFACF9091B900987F81E003
:101F3000983209F480E0089581E0089584EC80935C
:101F4000BC008FEF9FEF019739F02091BC0027FF75
:101F5000FACF8091BB00089580E0089584E88093D3
:101F6000BC008FEF9FEF019739F02091BC0027FF55
:101F7000FACF8091BB00089580E00895CF93C0E030
:101F80008C2F880F0E94250F0E947B0FCF5FC038D7
:101F9000B9F7CF91089582E084BD95E095BD9AE7A9
:101FA00097BD80936E000895CF93DF9300D000D04B
:101FB000CDB7DEB78FB7F894209144013091450139
:101FC000409146015091470129833A834B835C83BA
:101FD0008FBF69817A818B819C810F900F900F90C8
:101FE0000F90DF91CF9108951F921FB61F92112479
:101FF0008F939F93AF93BF9380914401909145013C
:10200000A0914601B09147010F96A11DB11D80938B
:10201000440190934501A0934601B09347018091FC
:1020200048019DE5980F9D3750F490934801BF916A
:10203000AF919F918F911F901FBE1F901895805256
:10204000809348018091440190914501A0914601FF
:10205000B09147010196A11DB11D80934401909359
:102060004501A0934601B0934701E1CF00D000D0D5
:10207000CDB7DEB70E948B0280E00E94BE096DECF6
:102080007CEC8CEC9DE30E941B0462E190E080E01C
:102090000E94FA0B6EE081E090E00E94FA0B60E291
:1020A00071EA87E090E00E94110880E090E00E94D1
:1020B000511290933701809336010EEB10E084E6C5
:1020C000E82EF12C0E94C501209136013091370194
:1020D000281B390B44E6429FC001439F900D1124F9
:1020E000B8010E94A1107093330160933201809176
:1020F0003201909133018536910520F0F092330141
:10210000E092320180913201909133019C0150E0C4
:1021100040E029833A834B835C83CA01B9010E9462
:10212000C70D88E690E00E94B10D0E9414013FEFB8
:1021300041EE54E0315040405040E1F700C0000013
:10214000C1CFAA1BBB1B51E107C0AA1FBB1FA6170B
:10215000B70710F0A61BB70B881F991F5A95A9F750
:1021600080959095BC01CD010895A1E21A2EAA1B7D
:10217000BB1BFD010DC0AA1FBB1FEE1FFF1FA21737
:10218000B307E407F50720F0A21BB30BE40BF50B34
:10219000661F771F881F991F1A9469F760957095BD
:1021A000809590959B01AC01BD01CF0108950E94DF
:1021B000EA10A59F900DB49F900DA49F800D911DD6
:1021C00011240895B7FF0C94D7100E94D710821BDA
:1021D000930B0895A29FB001B39FC001A39F700D00
:1021E000811D1124911DB29F700D811D1124911D1F
:1021F00008950E946A1108F481E008950E949611E2
:1022000088F09F5798F0B92F9927B751B0F0E1F0B7
:10221000660F771F881F991F1AF0BA95C9F714C067
:10222000B13091F00E94B011B1E008950C94B0115A
:10223000672F782F8827B85F39F0B93FCCF38695A0
:1022400077956795B395D9F73EF4909580957095FD
:1022500061957F4F8F4F9F4F0895E89409C097FB7A
:102260003EF490958095709561957F4F8F4F9F4F6D
:102270009923A9F0F92F96E9BB279395F6958795B1
:1022800077956795B795F111F8CFFAF4BB0F11F474
:1022900060FF1BC06F5F7F4F8F4F9F4F16C088231B
:1022A00011F096E911C0772321F09EE8872F762F51
:1022B00005C0662371F096E8862F70E060E02AF092
:1022C0009A95660F771F881FDAF7880F969587957E
:1022D00097F90895990F0008550FAA0BE0E8FEEF53
:1022E00016161706E807F907C0F012161306E407DA
:1022F000F50798F0621B730B840B950B39F40A26D3
:1023000061F0232B242B252B21F408950A2609F4B0
:10231000A140A6958FEF811D811D089557FD90580E
:10232000440F551F59F05F3F71F04795880F97FB99
:10233000991F61F09F3F79F0879508951216130653
:102340001406551FF2CF4695F1DF08C01616170682
:102350001806991FF1CF86957105610508940895B7
:10236000E894BB2766277727CB0197F908950E9449
:102370006A1108F48FEF08950E94CF110C94401257
:102380000E94321238F00E94391220F0952311F089
:102390000C9429120C942F1211240C94B1110E9448
:1023A0008E1170F3959FC1F3950F50E0551F629FFA
:1023B000F001729FBB27F00DB11D639FAA27F00D9E
:1023C000B11DAA1F649F6627B00DA11D661F829FC5
:1023D0002227B00DA11D621F739FB00DA11D621FAA
:1023E000839FA00D611D221F749F3327A00D611DC7
:1023F000231F849F600D211D822F762F6A2F1124A9
:102400009F5750409AF0F1F088234AF0EE0FFF1FDB
:10241000BB1F661F771F881F91505040A9F79E3F32
:10242000510580F00C9429120C94B1115F3FE4F334
:10243000983ED4F3869577956795B795F795E79588
:102440009F5FC1F7FE2B880F911D9695879597F991
:10245000089597F99F6780E870E060E008959FEF26
:1024600080EC089500240A9416161706180609062B
:10247000089500240A9412161306140605060895FA
:10248000092E0394000C11F4882352F0BB0F40F482
:10249000BF2B11F460FF04C06F5F7F4F8F4F9F4FC2
:1024A0000895A8E1B0E042E050E00C945912DC013C
:1024B000CB01FC01F999FECF06C0F2BDE1BDF89A4F
:1024C000319600B40D9241505040B8F70895F894F9
:0224D000FFCF3C
:1024D20001143F065B4F666D7D077F6F52303132CC
:0E24E2003334353637383941424344454600DD
:00000001FF
