:100000000C9432000C944F000C944F000C944F0051
:100010000C944F000C944F000C94E4020C944F008D
:100020000C944F000C944F000C944F000C944F0014
:100030000C944F000C944F000C944F000C944F0004
:100040000C944F000C944F000C944F000C94021031
:100050000C944F00636D200020003A20000A2020FD
:100060002020000011241FBECFE5D4E0DEBFCDBFAD
:1000700010E0A0E6B0E0E4EDF4E202C005900D92DD
:10008000AA38B107D9F720E0AAE8B0E001C01D9274
:10009000AE3BB207E1F70E9444100C9468120C9436
:1000A0000000CF93DF9300D000D0CDB7DEB7262F6E
:1000B0008536910510F084E690E06AE070E00E94D9
:1000C000B81080E090E0DC01615030F0880F991F9B
:1000D000AA1FBB1F8160F8CFAC01BD0104C0440F53
:1000E000551F661F771F2A95D2F7CB01BA010F90D3
:1000F0000F900F900F90DF91CF91089530E020E0A6
:1001000090E0682F70E0AB01022E02C05595479534
:100110000A94E2F74170990F942B2F5F3F4F2830DC
:10012000310589F7892F08958F929F92AF92BF92E0
:10013000EF92FF920F931F93CF93DF9300D000D0E5
:100140000F92CDB7DEB72D8310E000E0E42EF12C46
:100150002AE0822E912CA12CB12C0E151F054CF4F7
:10016000A50194010E94CC10B901CA010F5F1F4F75
:10017000F4CF2AE030E040E050E00E94CC106983E8
:100180007A838B839C83E981FA81EE59FF4F8081CA
:100190009D81911180950F900F900F900F900F906F
:1001A000DF91CF911F910F91FF90EF90BF90AF9093
:1001B0009F908F9008950F931F93CF93DF93FB0130
:1001C000DA0170E060E0C1E0D0E090E06217C0F4D6
:1001D0003D91AE0101C0440F3A95EAF78C01062E1D
:1001E00002C0159507950A94E2F7308100FF05C01B
:1001F000432B40836F5F7F4FE9CF40954323F9CF77
:10020000DF91CF911F910F910895CF92DF92EF92DE
:10021000FF92CF93DF93CDB7DEB72E970FB6F8944A
:10022000DEBF0FBECDBF8091A9009091AA00C12C66
:1002300032E0D32EE12CF12C8036910550F4C090A1
:10024000A400D12CDC2CCC24DD0C0D2C000CEE08F1
:10025000FF088091A9009091AA0060E00E945100DF
:100260006B877C878D879E87C62AD72AE82AF92A3A
:10027000C092A500D092A600E092A700F092A8003C
:1002800080916D0090916E00A0916F00B091700010
:100290008F839887A987BA8786E0E1E7F0E0DE01DF
:1002A000119601900D928A95E1F726E0AE014F5F1D
:1002B0005F4F65E370E08C2D8F730E94DB008091AF
:1002C000A5009091A600A091A700B091A80026E0FB
:1002D000B695A795979587952A95D1F724E0AE0115
:1002E000495F5F4F62E370E00E94DB008091A900EC
:1002F0009091AA00843608F083E6282F30E050E081
:1003000040E02B873C874D875E8721E041E06B858D
:100310007C858D859E850E9494008BBB21E040E00A
:100320006B857C858D859E850E94940088BB2E966A
:100330000FB6F894DEBF0FBECDBFDF91CF91FF9017
:10034000EF90DF90CF900895CF93DF93CDB7DEB7D6
:100350002D970FB6F894DEBF0FBECDBFCE0101962C
:100360000E94BF056AE070E00E94B8107093AC0074
:100370006093AB008091AB009091AC009C0150E089
:1003800040E02A873B874C875D87CA01B9010E94FC
:10039000F20D84E590E00E94DC0D8091AB0090911D
:1003A000AC002D960FB6F894DEBF0FBECDBFDF9127
:1003B000CF9108959B01FC0170E060E090E080E047
:1003C0006217730739F041915191840F951F6F5F48
:1003D0007F4FF6CF0E94B810CB0108952F923F9225
:1003E0004F925F926F927F928F929F92AF92BF9245
:1003F000CF92DF92EF92FF920F931F93CF93DF93F1
:1004000000D000D000D0CDB7DEB780E990E09A836D
:100410008983A981BA81A45AB04071F00E94A401D5
:100420009C0181608F3F9F41A1F3A981BA812D93E7
:100430003D93BA83A983EDCF6AE070E080E990E054
:100440000E94DA012C01712C612C00E910E0F12CE2
:10045000E12CEFEFEE1AFE0A1E830D838D819E8143
:10046000A0E0823A9A0709F440C0F801C080D18028
:10047000DC011296AD90BC90D301C2018C199D098C
:10048000A109B10989839A83AB83BC83BC01CD01E7
:100490000E9444111B014C01D301C2018A199B091E
:1004A000A109B10989839A83AB83BC83BC01CD01C7
:1004B0000E9444119B01AC0129823A828B829C826A
:1004C00069817A818B819C810E94CE1118163CF43F
:1004D000D801AD92BC92ED81FE81D382C2828D8122
:1004E0009E8102969E838D83B9CF0E5F1F4FBAE027
:1004F000EB16F10409F0ADCF65E070E080E990E023
:1005000026960FB6F894DEBF0FBECDBFDF91CF9118
:100510001F910F91FF90EF90DF90CF90BF90AF9021
:100520009F908F907F906F905F904F903F902F9013
:100530000C94DA0183BD08951FBC8BE08EBD82EE62
:1005400094E09BBD8ABD89B7806189BF08958F9A69
:1005500088E685BD85B5816085BD13BC08950E9480
:10056000C50D54988FEF84BB81BB8ABB87BB0E94AB
:100570004A0F0E94D80F0E949C020E94A702789402
:10058000089580918F008F5F80938F0080918F00FE
:100590008230C8F010928F009091610080916100CC
:1005A0009D3310F48A3028F4809160008195809307
:1005B00060008091600090916100890F80936100DC
:1005C0008091610083BD08951F920F920FB60F9224
:1005D00011242F933F934F935F936F937F938F9348
:1005E0009F93AF93BF93EF93FF930E94C1028091BB
:1005F0008E008F5F80938E0080918E00833340F059
:1006000010928E009091A40081E0891B8093A40039
:10061000FF91EF91BF91AF919F918F917F916F91DA
:100620005F914F913F912F910F900FBE0F901F90B0
:1006300018950F931F930097B9F00197B0E0A0E0D1
:1006400050E040E08C019D010027012B022B032B81
:1006500039F0B695A795979587954F5F5F4FF2CF85
:10066000342F2227822B932B1F910F910895CF9324
:10067000DF93D82FC62F80916C000E944E0F8D2FD4
:100680000E949E0F8C2F0E949E0FDF91CF910C94A1
:10069000940F1F93CF93DF93182FEB0180916C0081
:1006A0000E944E0F812F0E949E0F8D2F0E949E0F41
:1006B0008C2F0E949E0FDF91CF911F910C94940F6D
:1006C000FF920F931F93CF93DF93F82EEA01162F1B
:1006D000072F80916C000E944E0F8F2D0E949E0F5D
:1006E000802F0E949E0F812F0E949E0F8D2F0E94AF
:1006F0009E0F8C2F0E949E0FDF91CF911F910F9123
:10070000FF900C94940FCF93C82F80916C000E949F
:100710004E0F8C2F0E949E0F80916C0081600E9472
:10072000920F0E94BE0FC82F0E94940F8C2FCF9162
:100730000895CF93DF93C82F80916C000E944E0FD5
:100740008C2F0E949E0F80916C0081600E94920FFE
:100750000E94B10FC82FD0E0DC2FCC270E94BE0F23
:10076000C82B0E94940FCE01DF91CF910895CF92B4
:10077000DF92EF92FF92CF93DF9300D000D0CDB7FE
:10078000DEB7898380916C000E944E0F89810E94A0
:100790009E0F80916C0081600E94920F0E94B10FA9
:1007A00090E0B0E0A0E0F82EEE24DD24CC240E94FE
:1007B000B10FE82A0E94B10F89830E94BE0FC82A98
:1007C000D701C6012981922B89839A83AB83BC838D
:1007D0000E94940F69817A818B819C810F900F9088
:1007E0000F900F90DF91CF91FF90EF90DF90CF901F
:1007F0000895FF920F931F93CF93DF93C82FF62E88
:10080000072F142F80916C000E944E0F8C2F0E9496
:100810009E0F115040F0CF2DD02F89910E949E0F36
:10082000FC2E0D2FF6CFDF91CF911F910F91FF90EE
:100830000C94940FEF92FF920F931F93CF93DF933B
:10084000082FEB01142F80916C000E944E0F802F17
:100850000E949E0F80916C0081600E94920F112374
:1008600079F07E018FEFE81AF80A123030F00E941A
:10087000B10F88831150E701F2CF0E94BE0FF9CF6C
:10088000DF91CF911F910F91FF90EF900C94940FF7
:10089000CF93C82F682F66958AE80E943703C093CC
:1008A0006C00CF91089580916C0008950F931F9371
:1008B000CF93DF9300D000D000D0CDB7DEB78B014F
:1008C0008E839D8320E030E0A90169831A838B83A6
:1008D0009C8369817A818B819C810E94101187FDA4
:1008E0002FC028EB3EEF4FEF53E469817A818B8173
:1008F0009C810E94CE1118161CF120E030E040E0EF
:1009000053E469817A818B819C810E94D311698330
:100910007A838B839C8369817A818B819C810E94FD
:10092000151184E40E94490381E026960FB6F894DD
:10093000DEBF0FBECDBFDF91CF911F910F91089504
:1009400080E0F3CFCF93DF9300D000D0CDB7DEB7F8
:1009500084E40E9499039C0150E040E029833A839B
:100960004B835C83CA01B9010E94441120E030E04E
:1009700040E05CE369837A838B839C8369817A811D
:100980008B819C810E94D31169837A838B839C83A2
:1009900069817A818B819C810F900F900F900F90CD
:1009A000DF91CF9108959C0180E52115310521F05B
:1009B0002130310531F480E70E9483038F5F880F77
:1009C00008958FEF0895CF92DF92EF92FF926B011F
:1009D0007C0161E080E80E94370361E08FEF0E94B4
:1009E000370360E080E00E9437036091B30081E943
:1009F0000E94370361E080E00E94370360E08FEFE0
:100A00000E94370360E080E80E94370362E0C1146F
:100A1000D104E104F10491F088EF0E949903DC0114
:100A2000892B31F0A70196010E94EE106B017C0129
:100A3000B701A60184E00E94600364E080E0FF90BB
:100A4000EF90DF90CF900C94370361E080E00E943C
:100A5000370361E08FEF0E94370360E080E00E947F
:100A6000370360E081E90E94370361E080E00E9483
:100A7000370360E08FEF0C943703EF92FF920F93F0
:100A80001F93CF93DF93CDB7DEB760970FB6F8947F
:100A9000DEBF0FBECDBF7C010E94E20F7093B50098
:100AA0006093B40083E10E948303877079F580919D
:100AB000B7009091B800892BA9F30E94E20F6D87CF
:100AC0007E878F87988B8091B4009091B5002D859B
:100AD0003E85281B390BC9012091B7003091B80021
:100AE00028173907F8F681E08093B6000FEF1FEF63
:100AF000C80160960FB6F894DEBF0FBECDBFDF9180
:100B0000CF911F910F91FF90EF900895E114F104A0
:100B100049F48EE10E9499038C0161E08BE00E9410
:100B20003703E6CF4CE0BE016F5F7F4F84E10E9448
:100B30001A04898190E023E0959587952A95E1F73D
:100B4000F70180878B819C81982789279827978335
:100B500086838F8198859827892798279383828316
:100B600089859A85982789279827958384830B857B
:100B70001C8510270127102711830083CECFCF9328
:100B8000DF9300D000D000D0CDB7DEB78E839D8339
:100B900061E080E80E94370361E08FEF0E94370335
:100BA00060E080E00E9437036091B30081E90E9419
:100BB000370361E080E00E94370360E08FEF0E941E
:100BC000370360E080E80E94370361E080E00E9424
:100BD00037030E94E20F7093B5006093B40080E089
:100BE0000E94830380FF2AC08091B7009091B800D3
:100BF000892BA9F30E94E20F69837A838B839C83FC
:100C00008091B4009091B50029813A81281B390B5D
:100C1000C9012091B7003091B80028173907F8F6BC
:100C200081E08093B6008FEF9FEF26960FB6F89481
:100C3000DEBF0FBECDBFDF91CF9108958E819D8124
:100C400026960FB6F894DEBF0FBECDBFDF91CF91D1
:100C50000C943D058091B6001092B60008959093D3
:100C6000B8008093B70008958091B7009091B800C4
:100C70000895EF92FF920F931F93CF93DF9300D0CD
:100C800000D00F92CDB7DEB77C018B0161E080E828
:100C90000E94370361E08FEF0E94370360E080E03D
:100CA0000E94370366E08FEF0E94370383E80E94BB
:100CB0008303682F646083E80E94370367E08FEF47
:100CC0000E94370361E081E80E94370361E080E819
:100CD0000E9437036BE684E90E94370360E083E8F3
:100CE0000E9437030E94E20F7093B5006093B40036
:100CF00083E80E9483038D83811129C08091B7000E
:100D00009091B800892BA1F30E94E20F69837A8346
:100D10008B839C838091B4009091B50029813A81A6
:100D2000281B390BC9012091B7003091B800281752
:100D30003907F0F68D810F900F900F900F900F9064
:100D4000DF91CF911F910F91FF90EF90089561E097
:100D500083E80E94370382E90E948303982F9F77DC
:100D6000F7019083881F8827881FF801808360E03F
:100D700081E80E94370366E08FEF0E94370383E823
:100D80000E948303682F6B7F83E80E94370361E032
:100D90008FEF0E94370361E080E00E94370360E03C
:100DA0008FEF0E94370360E080E80E943703F1E094
:100DB000FD83C0CFCF93DF93EC0181E00E948303DA
:100DC00084FB992790F9988383FB992790F99A835C
:100DD00082FB992790F9998386FB992790F99B8349
:100DE000881F8827881F8C83DF91CF9108954F92A9
:100DF0005F926F927F928F929F92AF92BF92EF928B
:100E0000FF920F931F93CF93DF93CDB7DEB72A974F
:100E10000FB6F894DEBF0FBECDBF8C0169877A870D
:100E200090E080E00E94D30490E0A985BA858D937C
:100E30009C9386E40E948303E82EF12CBFEFEB1A0B
:100E4000FB0AE985FA85F582E482A081B0E020E022
:100E50003FE24AE350E00E94EE10DC01CB018C50EF
:100E60009E4FAF4FBF4F89839A83AB83BC8338EECD
:100E7000832E33E0932EA12CB12CBC01CD01A50112
:100E800094010E94CC10D7010E94F9106D837E83DB
:100E90008F83988740ED442E47E0542E612C712CAF
:100EA00069817A818B819C81A30192010E94CC107F
:100EB0008D819E81AF81B885820F931FA41FB51FBE
:100EC0008D839E83AF83B887BC01CD01A5019401BA
:100ED0000E94CC10A985BA851A962D933D934D9307
:100EE0005C931D9781E50E949903E82EF12C02C0C6
:100EF000EE0CFF1C9A95E2F7BFEFEB1AFB0AE985AF
:100F0000FA85F782E682A081B0E020E03FE24AE382
:100F100050E00E94EE10DC01CB018C509E4FAF4F91
:100F2000BF4F89839A83AB83BC83BC01CD01A501EC
:100F300094010E94CC10D7010E94EE106D837E8335
:100F40008F83988769817A818B819C81A30192012B
:100F50000E94CC108D819E81AF81B885820F931F36
:100F6000A41FB51F8D839E83AF83B887BC01CD01BD
:100F7000A50194010E94CC10A985BA851E962D93D7
:100F80003D934D935C93519780E70E9483038F5F5D
:100F9000880F90E0E985FA859383828381E70E9438
:100FA0009903292F90E002C0880F991F2A95E2F734
:100FB0000196A985BA8519969C938E931897F80186
:100FC0002381222351F016962D913C911797821B75
:100FD000930B19969C938E931897E985FA85A281B5
:100FE000B0E020E03FE24AE350E00E94EE10DC0176
:100FF000CB018C509E4FAF4FBF4F89839A83AB83F9
:10100000BC8328EE822E23E0922EA12CB12CBC01B1
:10101000CD01A50194010E94CC10E985FA85A08537
:10102000B1850E94EE106D837E838F8398876981DE
:101030007A818B819C8120ED37E040E050E00E9476
:10104000CC108D819E81AF81B885820F931FA41F24
:10105000B51FBC01CD01A50194010E94CC10A9854A
:10106000BA8552962D933D934D935C9355972A964E
:101070000FB6F894DEBF0FBECDBFDF91CF911F91A9
:101080000F91FF90EF90BF90AF909F908F907F90C7
:101090006F905F904F9008958F929F92AF92BF9202
:1010A000CF92DF92EF92FF921F93CF93DF93CDB752
:1010B000DEB7A3970FB6F894DEBF0FBECDBF4B01CE
:1010C0005C0120E282162EE49206A104B10408F429
:1010D000CCC0CE0147960E94DA06BE016F5F7F4FFB
:1010E000CE0147960E94F7068F89882309F4ABC08A
:1010F0008B859C85AD85BE858A5C944FAF4FBF4F75
:10110000298D222309F4A4C04B855C856D857E85DD
:101110004E545D4F6F4F7F4F440F551F661F771F13
:10112000840F951FA61FB71F1A8D112361F04F85DD
:10113000588969897A894C565D4F6F4F7F4F840F6C
:10114000951FA61FB71F2B8D222309F469C06C01C0
:101150007D0126E2C20E22E0D21EE11CF11C8C149D
:101160009D04AE04BF0408F480C0AB81B0E020E071
:101170003FE24AE350E00E94EE10DC01CB018C50CC
:101180009E4FAF4FBF4F8C8F9D8FAE8FBF8FA501EE
:1011900094012C193D094E095F09A8EEB3E00E94A5
:1011A000EE1068A379A38AA39BA36C8D7D8D8E8D91
:1011B0009F8D20ED37E040E050E00E94CC1088A1E8
:1011C00099A1AAA1BBA1820F931FA41FB51F88A339
:1011D00099A3AAA3BBA36C8D7D8D8E8D9F8D28EEC8
:1011E00033E040E050E00E94CC1068A179A18AA1D0
:1011F0009BA10E94CC10C901112321F08F819885F9
:10120000820F931F0E941903BC0181E70E944903CA
:101210008092AF009092B000A092B100B092B20064
:1012200081E0A3960FB6F894DEBF0FBECDBFDF916D
:10123000CF911F91FF90EF90DF90CF90BF90AF9034
:101240009F908F90089588EE98E0A0E0B0E058CF8E
:10125000288D222309F468CF4B855C856D857E85BA
:101260004C565D4F6F4F7F4F5BCF80E0DACF0F93CF
:101270001F93CF93DF93CDB7DEB76B970FB6F8947C
:10128000DEBF0FBECDBFCE0147960E94DA06BE017B
:101290006F5F7F4FCE0147960E94F7068F898823A4
:1012A00009F44DC06B857C858D859E856C57724F8A
:1012B0008F4F9F4F298D222309F446C00B851C8533
:1012C0002D853E850E541D4F2F4F3F4F000F111F90
:1012D000221F331F600F711F821F931F2A8D22232D
:1012E00061F00F85188929893A890C561D4F2F4FB7
:1012F0003F4F600F711F821F931F2B8D222361F0C0
:101300000B891C892D893E890A5D1D4F2F4F3F4F48
:10131000600F711F821F931F6093AF007093B00026
:101320008093B1009093B2006B960FB6F894DEBF35
:101330000FBECDBFDF91CF911F910F91089566E34E
:101340007BE080E090E0B6CF288D222339F20B8538
:101350001C852D853E850C561D4F2F4F3F4FBACF14
:10136000CF93DF9300D000D00F92CDB7DEB7682FB8
:10137000616080E00E9437030E94E20F7093B50025
:101380006093B40083E10E94830387708D83811191
:1013900025C08091B7009091B800892B99F30E94E5
:1013A000E20F69837A838B839C838091B400909150
:1013B000B50029813A81281B390BC9012091B7005A
:1013C0003091B80028173907E8F68D810F900F90FB
:1013D0000F900F900F90DF91CF91089561E08BE017
:1013E0000E94370360E080E00E94370331E03D83D4
:1013F000ECCF0F931F93CF93DF93CDB7DEB72C972E
:101400000FB6F894DEBF0FBECDBF882341F089E848
:101410000E948303682F616089E80E94370360E0BF
:1014200088E80E94370361E080E80E94370361E0AA
:101430008FEF0E94370360E080E00E94370381E96C
:101440000E9483038093B30061E080E00E94370331
:1014500060E08FEF0E94370360E080E80E9437036E
:1014600080E60E948303682F626180E60E94370352
:1014700060E270E084E40E9449036FEF81E00E9423
:101480003703BE01695F7F4FCE0108960E9439067F
:1014900081110CC080E02C960FB6F894DEBF0FBE11
:1014A000CDBFDF91CF911F910F91089546E0BE010E
:1014B0006F5F7F4F80EB0E941A0461E08FEF0E9404
:1014C000370360E08FE40E9437036CE28EE40E94F1
:1014D000370360E08FEF0E94370364EB86EB0E94D6
:1014E00037039F8191119CE0B88580E0A0E001E086
:1014F00010E0482F46954695469550E021E030E0B3
:101500002C0F3D1F240F351FF9012081682F6770B4
:10151000891710F0BA139FC1E1E0F0E0EC0FFD1F56
:101520004E0F5F1FF80102C0EE0FFF1F6A95E2F732
:10153000BF0160952623FA0120838F5F8033C9F6AF
:1015400046E0BE016F5F7F4F80EB0E94F90361E0D0
:101550008FEF0E94370360E080E00E94370360E075
:101560008FEF0E94370360E089E00E94370360E05C
:1015700080E10E94370360E081E10E94370361E06F
:1015800084E20E9437036FEF85E20E94370360E038
:1015900085E70E94370361E08FEF0E9437036CE21A
:1015A0008EE40E94370360E088E40E94370360E223
:1015B00080E30E94370360E08FEF0E94370369E009
:1015C00080E30E94370360E084E50E94370364E013
:1015D00081E30E94370363E082E30E94370363E8FC
:1015E00080E40E94370365E286E40E94370360E0EE
:1015F00080E60E94370360E087E20E94370366E0DE
:1016000080E50E94370360E081E50E94370366E9C8
:1016100082E50E94370368E086E50E94370360E3B5
:1016200087E50E94370360E081E60E94370360E0AF
:1016300082E60E94370360E084E60E94370360E0A0
:1016400085E60E94370360EA86E60E94370361E080
:101650008FEF0E94370362E382E20E94370364E166
:1016600087E40E9437036FEF89E40E94370360E04C
:101670008AE40E94370360E08FEF0E9437036AE03C
:101680008AE70E94370360E08BE70E94370361E23C
:1016900088E70E94370361E08FEF0E94370364E31D
:1016A00083E20E94370360E082E40E9437036FEF19
:1016B00084E40E94370366E285E40E94370365E014
:1016C00086E40E94370360E480E40E94370366E00A
:1016D0008EE00E9437036AE180E20E94370360E4F3
:1016E00083E40E94370360E08FEF0E94370363E0DA
:1016F00084E30E94370364E485E30E94370361E0DA
:101700008FEF0E94370364E081E30E94370369E0B2
:101710008BE40E94370365E08CE40E94370364E0A9
:101720008DE40E94370360E08FEF0E94370360E092
:1017300084E40E94370360E285E40E94370368E096
:1017400087E40E94370368E288E40E94370360E080
:1017500087E60E94370364E080E70E94370361E078
:1017600081E70E9437036EEF82E70E94370360E053
:1017700086E70E94370360E087E70E94370361E055
:101780008FEF0E94370361E08DE00E94370360E035
:101790008FEF0E94370361E080E80E94370368EF13
:1017A00081E00E94370361E08FEF0E94370361E020
:1017B0008EE80E94370361E080E00E94370360E01A
:1017C0008FEF0E94370360E080E80E94370364E0F7
:1017D0008AE00E94370384E80E948303682F6F7EAB
:1017E00084E80E94370361E08BE00E9437030E9487
:1017F00037096093AF007093B0008093B10090936D
:10180000B20068EE81E00E9437038091AF009091B2
:10181000B000A091B100B091B200BC01CD010E9416
:101820004C0861E081E00E94370380E40E94B00927
:10183000882309F42FCE62E081E00E94370380E024
:101840000E94B009882309F425CE68EE81E00E9449
:10185000370381E020CE30E002C0359527956A95A8
:10186000E2F720FF6ACEAF5F68CE8F929F92AF9271
:10187000BF92CF92DF92EF92FF920F931F93CF937D
:10188000DF93CDB7DEB7A3970FB6F894DEBF0FBED8
:10189000CDBF7C01162F062F06950150CE0147962D
:1018A0000E94DA06BE016F5F7F4FCE0147960E940D
:1018B000F706E114F10409F0B3C0103109F4AEC029
:1018C00040F41C3009F4A8C060E31E3029F080E029
:1018D00090C060E51231D9F787E50E94370368E0D0
:1018E00086E50E943703602F80E50E943703A12F11
:1018F000B0E020E03FE24AE350E00E94EE10DC015D
:10190000CB018C509E4FAF4FBF4F8C8F9D8FAE8FB2
:10191000BF8FBC01CD0128EE33E040E050E00E94D3
:10192000CC1049015A016C8D7D8D8E8D9F8D20EDDF
:1019300037E040E050E00E94CC1069017A012F8529
:10194000388949895A89A8EEB3E00E94EE10DC017B
:10195000CB018C0D9D1DAE1DBF1D8C8F9D8FAE8F3D
:10196000BF8FBC01CD01A50194010E94CC10C9011B
:101970000E941903BC0181E50E9449032B853C8527
:101980004D855E85A8EEB3E00E94EE10DC01CB0130
:101990008C0D9D1DAE1DBF1DBC01CD01A501940187
:1019A0000E94CC10213091E0390710F020E031E0A6
:1019B0006FEF620F86E40E9437038091AF00909131
:1019C000B000A091B100B091B200BC01CD010E9465
:1019D0004C0881E00E948303182F62E081E00E949E
:1019E000370380E00E94B009612F81E00E94370335
:1019F00081E0A3960FB6F894DEBF0FBECDBFDF9196
:101A0000CF911F910F91FF90EF90DF90CF90BF90FB
:101A1000AF909F908F90089568E15ECF60E45CCFB7
:101A2000EA94EF2809F053CF1C3009F4A0C0D8F491
:101A3000183051F11A3009F04ACF68E288E40E9468
:101A4000370368E087E40E94370363E082E30E9483
:101A5000370369E080E30E94370361E08FEF0E9463
:101A6000370360E226C01E3009F031CF68E488E415
:101A70000E94370368E087E40E94370363E082E353
:101A80000E94370367E0E6CF60E188E40E943703F5
:101A900068E087E40E94370362E082E30E94370334
:101AA0006CE080E30E94370361E08FEF0E94370310
:101AB00060E380E30E94370360E08FEF0E9437030A
:101AC000602F80E70E943703A12FB0E020E03FE2C3
:101AD0004AE350E00E94EE10DC01CB018C509E4F97
:101AE000AF4FBF4F8C8F9D8FAE8FBF8F2B893C899F
:101AF0004D895E89A8EEB3E00E94EE1068A379A339
:101B00008AA39BA36C8D7D8D8E8D9F8D20ED37E0FC
:101B100040E050E00E94CC1088A199A1AAA1BBA1ED
:101B2000820F931FA41FB51F88A399A3AAA3BBA3C9
:101B30006C8D7D8D8E8D9F8D28EE33E040E050E0E2
:101B40000E94CC1068A179A18AA19BA10E94CC100F
:101B5000C9016A8D662321F08F819885820F931FBA
:101B60000E941903BC0181E70E94490326CF68E364
:101B700088E40E94370368E087E40E94370363E04B
:101B800082E30E94370368E065CF8AB188618AB931
:101B900010BC88E089B9599A08955D9BFECF8CB935
:101BA00008959FE9980F963010F487550895805353
:101BB0008A3008F08FEF08951F93CF93DF93EC01E5
:101BC000FE011491112351F0812F0E94CD0D1A3086
:101BD00019F48DE00E94CD0D2196F2CFDF91CF91C7
:101BE0001F9108958F929F92AF92BF92EF92FF92B2
:101BF0000F931F93CF93DF93CDB7DEB72E970FB61A
:101C0000F894DEBF0FBECDBF6B877C878D879E8724
:101C10008E010F5F1F4F78018AE0882E912CA12C36
:101C2000B12C8B859C85AD85BE85892B8A2B8B2B12
:101C300019F4E016F10681F46B857C858D859E850F
:101C4000A50194010E94CC10D8016D938D012B87C2
:101C50003C874D875E87E5CFF80182918F01805DDB
:101C60000E94CD0DE016F106B9F72E960FB6F89446
:101C7000DEBF0FBECDBFDF91CF911F910F91FF90BF
:101C8000EF90BF90AF909F908F9008958F929F920A
:101C9000AF92BF92CF92DF92EF92FF92CF93DF93FA
:101CA00000D000D000D0CDB7DEB76B017C01842F0F
:101CB00090E09E838D8388248394912C042E02C00F
:101CC000880C991C0A94E2F791E0891A9108092C72
:101CD000000CAA08BB08D701CB0104C0B695A79594
:101CE000979587954A95D2F7BC01CD010E94F20DD8
:101CF0008EE20E94CD0DA50194012C213D214E21A3
:101D00005F212115310541055105F1F0AAE0B0E050
:101D10000E94EE1069837A838B839C83DC01CB0164
:101D20000D8004C0B695A795979587950A94D2F72C
:101D3000805D0E94CD0D29813A814B815C812821F3
:101D400039214A215B21DDCF26960FB6F894DEBFFC
:101D50000FBECDBFDF91CF91FF90EF90DF90CF907E
:101D6000BF90AF909F908F900895CF92DF92EF92A7
:101D7000FF92CF93DF936B017C01842F8150990BED
:101D8000EC01CC0FDD1FCC0FDD1FD7FD16C0D70136
:101D9000C6010C2E04C0B695A795979587950A9411
:101DA000D2F78F709927AA27BB2788589F4FFC012D
:101DB00080810E94CD0D2497E8CFDF91CF91FF90D5
:101DC000EF90DF90CF900895EF92FF920F931F93C3
:101DD000CF93DF93CDB7DEB72A970FB6F894DEBF67
:101DE0000FBECDBF8C017B0119821A821B821C821F
:101DF00089819A818E159F0508F03FC021E1E21686
:101E0000F10498F08F709927892B79F48DE590E093
:101E10000E94DC0D44E069817A818B819C810E9463
:101E2000B50E8AE590E00E94DC0D09871A87A98526
:101E3000BA858D91BA87A987282F30E050E040E01D
:101E40002D833E834F83588742E06D817E818F8151
:101E500098850E94B50E88E590E00E94DC0D89818E
:101E60009A81AB81BC810196A11DB11D89839A83A2
:101E7000AB83BC8309851A85BBCF2A960FB6F8942D
:101E8000DEBF0FBECDBFDF91CF911F910F91FF90AD
:101E9000EF90089511B882E080B9089594EA96BF52
:101EA0002FEF3FEF2150310911F481E0089506B67C
:101EB00007FEF8CF91B1987F983011F09031A9F7D3
:101EC00083B984E886BF8FEF9FEF019771F306B661
:101ED00007FEFBCF91B1987F983119F081E09034E3
:101EE00011F480E00895089524EA34E844E926BF17
:101EF00006B607FEFDCF91B1987F983011F0903172
:101F0000B1F783B936BF06B607FEFDCF91B1987F12
:101F1000903211F0983529F446BF06B604FCFDCF87
:101F2000E6CF08950C944E0F84E986BF8FEF9FEFA4
:101F3000019719F006B604FCFBCF089583B984E835
:101F400086BF8FEF9FEF019751F006B607FEFBCFDC
:101F500091B1987F81E0983209F480E0089581E0A2
:101F6000089584EC86BF8FEF9FEF019729F006B6A6
:101F700007FEFBCF83B1089580E0089584E886BF13
:101F80008FEF9FEF019729F006B607FEFBCF83B1D5
:101F9000089580E00895CF93C0E08C2F880F0E94B1
:101FA0004E0F0E94940FCF5FC038B9F7CF910895BC
:101FB00088E083BF83B7836083BF8DE78CBF82E0F7
:101FC00089BF0895CF93DF9300D000D0CDB7DEB79F
:101FD0008FB7F8942091B9003091BA004091BB00BE
:101FE0005091BC0029833A834B835C838FBF698106
:101FF0007A818B819C810F900F900F900F90DF91D1
:10200000CF9108951F921FB61F9211248F939F9313
:10201000AF93BF938091B9009091BA00A091BB009B
:10202000B091BC000196A11DB11D8093B9009093A1
:10203000BA00A093BB00B093BC008091BD0091E0BA
:10204000980F9D3750F49093BD00BF91AF919F9131
:102050008F911F901FBE1F9018958C578093BD00C5
:102060008091B9009091BA00A091BB00B091BC00E2
:102070000196A11DB11D8093B9009093BA00A09361
:10208000BB00B093BC00E1CFCDB7DEB728970FB649
:10209000F894DEBF0FBECDBF0E94AF028BE090E090
:1020A0009093AA008093A90019821A821B821C8235
:1020B00016E00E94E20F462F572FBC0140938A0082
:1020C00050938B0060938C0070938D0080918A00F8
:1020D00090918B00A0918C00B0918D0049815A8124
:1020E0006B817C81841B950BA60BB70B883E9340BC
:1020F000A105B105C0F180918A0090918B00A0915B
:102100008C00B0918D0089839A83AB83BC838091CE
:10211000A9009091AA008B35910540F58091A90006
:102120009091AA000B9708F416E08091A900909175
:10213000AA00810F911D17FD9A959093AA00809394
:10214000A9008091A9009091AA009C0150E040E074
:102150002D833E834F835887CA01B9010E94F20D37
:1021600080E20E94CD0D0E940501A3CF1AEFDDCFC2
:10217000AA1BBB1B51E107C0AA1FBB1FA617B707AD
:1021800010F0A61BB70B881F991F5A95A9F78095C9
:102190009095BC01CD010895A1E21A2EAA1BBB1B8C
:1021A000FD010DC0AA1FBB1FEE1FFF1FA217B30723
:1021B000E407F50720F0A21BB30BE40BF50B661F39
:1021C000771F881F991F1A9469F7609570958095FD
:1021D00090959B01AC01BD01CF0108950E940111B2
:1021E000A59F900DB49F900DA49F800D911D11246B
:1021F0000895B7FF0C94EE100E94EE10821B930B13
:102200000895A29FB001B39FC001A39F700D811DCF
:102210001124911DB29F700D811D1124911D0895EF
:102220000E94811108F481E008950E94AD1188F0A8
:102230009F5798F0B92F9927B751B0F0E1F0660F8A
:10224000771F881F991F1AF0BA95C9F714C0B130CB
:1022500091F00E94C711B1E008950C94C711672F47
:10226000782F8827B85F39F0B93FCCF386957795FA
:102270006795B395D9F73EF49095809570956195E3
:102280007F4F8F4F9F4F0895E89409C097FB3EF40E
:1022900090958095709561957F4F8F4F9F4F9923B3
:1022A000A9F0F92F96E9BB279395F6958795779531
:1022B0006795B795F111F8CFFAF4BB0F11F460FFF1
:1022C0001BC06F5F7F4F8F4F9F4F16C0882311F049
:1022D00096E911C0772321F09EE8872F762F05C05D
:1022E000662371F096E8862F70E060E02AF09A95F8
:1022F000660F771F881FDAF7880F9695879597F9ED
:102300000895990F0008550FAA0BE0E8FEEF161686
:102310001706E807F907C0F012161306E407F507D9
:1023200098F0621B730B840B950B39F40A2661F04D
:10233000232B242B252B21F408950A2609F4A140F0
:10234000A6958FEF811D811D089557FD9058440F6C
:10235000551F59F05F3F71F04795880F97FB991F04
:1023600061F09F3F79F087950895121613061406C1
:10237000551FF2CF4695F1DF08C01616170618064E
:10238000991FF1CF86957105610508940895E89429
:10239000BB2766277727CB0197F908950E94811103
:1023A00008F48FEF08950E94E6110C9457120E94D2
:1023B000491238F00E94501220F0952311F00C942D
:1023C00040120C94461211240C94C8110E94A511BD
:1023D00070F3959FC1F3950F50E0551F629FF00178
:1023E000729FBB27F00DB11D639FAA27F00DB11D91
:1023F000AA1F649F6627B00DA11D661F829F22271A
:10240000B00DA11D621F739FB00DA11D621F839FA0
:10241000A00D611D221F749F3327A00D611D231F76
:10242000849F600D211D822F762F6A2F11249F57C4
:1024300050409AF0F1F088234AF0EE0FFF1FBB1FC7
:10244000661F771F881F91505040A9F79E3F510586
:1024500080F00C9440120C94C8115F3FE4F3983E56
:10246000D4F3869577956795B795F795E7959F5F30
:10247000C1F7FE2B880F911D9695879597F90895C2
:1024800097F99F6780E870E060E008959FEF80EC27
:10249000089500240A9416161706180609060895CA
:1024A00000240A9412161306140605060895092E30
:1024B0000394000C11F4882352F0BB0F40F4BF2B9F
:1024C00011F460FF04C06F5F7F4F8F4F9F4F0895DF
:0424D000F894FFCFAE
:1024D40001143F065B4F666D7D077F6F5200020358
:1024E400040203040506070030313233343536372D
:0A24F40038394142434445460000D8
:00000001FF
