:100000000C9432000C944F000C944F000C944F0051
:100010000C944F000C944F000C94C7020C944F00AA
:100020000C944F000C944F000C944F000C944F0014
:100030000C944F000C944F000C944F000C944F0004
:100040000C944F000C944F000C944F000C94FC0F38
:100050000C944F00636D200020003A20000A2020FD
:100060002020000011241FBECFE5D4E0DEBFCDBFAD
:1000700010E0A0E6B0E0ECE0F5E202C005900D92E1
:10008000A838B107D9F720E0A8E8B0E001C01D9278
:10009000A13CB207E1F70E943E100C9484120C942C
:1000A0000000CF93DF9300D000D0CDB7DEB7262F6E
:1000B0008536910510F084E690E06AE070E00E94D9
:1000C000BE1080E090E0DC01615030F0880F991F95
:1000D000AA1FBB1F8160F8CFAC01BD0104C0440F53
:1000E000551F661F771F2A95D2F7CB01BA010F90D3
:1000F0000F900F900F90DF91CF91089530E020E0A6
:1001000090E0682F70E0AB01022E02C05595479534
:100110000A94E2F74170990F942B2F5F3F4F2830DC
:10012000310589F7892F08958F929F92AF92BF92E0
:10013000EF92FF920F931F93CF93DF9300D000D0E5
:100140000F92CDB7DEB72D8310E000E0E42EF12C46
:100150002AE0822E912CA12CB12C0E151F054CF4F7
:10016000A50194010E94D210B901CA010F5F1F4F6F
:10017000F4CF2AE030E040E050E00E94D2106983E2
:100180007A838B839C83E981FA81EE59FF4F8081CA
:100190009D81911180950F900F900F900F900F906F
:1001A000DF91CF911F910F91FF90EF90BF90AF9093
:1001B0009F908F9008950F931F93CF93DF93FB0130
:1001C000DA0170E060E0C1E0D0E090E06217C0F4D6
:1001D0003D91AE0101C0440F3A95EAF78C01062E1D
:1001E00002C0159507950A94E2F7308100FF05C01B
:1001F000432B40836F5F7F4FE9CF40954323F9CF77
:10020000DF91CF911F910F910895CF93DF93CDB7D9
:10021000DEB72D970FB6F894DEBF0FBECDBF20918D
:10022000A8003091A90081E02036310508F480E073
:100230008093A3008091A8009091A90060E00E94A3
:100240005100362F6093A4007093A5008093A60000
:100250009093A70080916D0090916E00A0916F0027
:100260008F839887A98786E0E0E7F0E0DE011196AA
:1002700001900D928A95E1F726E0AE014F5F5F4F46
:1002800065E370E0832F8F730E94DB008091A400F0
:100290009091A500A091A600B091A70026E0B69588
:1002A000A795979587952A95D1F723E0AE01495FE9
:1002B0005F4F62E370E00E94DB008091A8009091A4
:1002C000A900843608F083E6282F30E050E040E0B3
:1002D0002A873B874C875D8721E041E06A857B85E3
:1002E0008C859D850E9494008BBB21E040E06A854F
:1002F0007B858C859D850E94940088BB2D960FB6CA
:10030000F894DEBF0FBECDBFDF91CF910895CF939C
:10031000DF93CDB7DEB72D970FB6F894DEBF0FBED3
:10032000CDBFCE0101960E94B9056AE070E00E943F
:10033000BE107093AB006093AA008091AA009091C8
:10034000AB009C0150E040E02A873B874C875D87EB
:10035000CA01B9010E94EC0D84E590E00E94D60D1F
:100360008091AA009091AB002D960FB6F894DEBF55
:100370000FBECDBFDF91CF9108959B01FC0170E0CE
:1003800060E090E080E06217730739F0419151918D
:10039000840F951F6F5F7F4FF6CF0E94BE10CB0179
:1003A00008952F923F924F925F926F927F928F9219
:1003B0009F92AF92BF92CF92DF92EF92FF920F93F4
:1003C0001F93CF93DF9300D000D000D0CDB7DEB71E
:1003D0008FE890E09A838983A981BA81A35AB040BB
:1003E00071F00E9487019C0181608F3F9F41A1F3C2
:1003F000A981BA812D933D93BA83A983EDCF6AE099
:1004000070E08FE890E00E94BD012C01712C612CFE
:100410000FE810E0F12CE12CEFEFEE1AFE0A1E833C
:100420000D838D819E81A0E0813A9A0709F440C036
:10043000F801C080D180DC011296AD90BC90D30150
:10044000C2018C199D09A109B10989839A83AB83E3
:10045000BC83BC01CD010E944A111B014C01D30198
:10046000C2018A199B09A109B10989839A83AB83C7
:10047000BC83BC01CD010E944A119B01AC012982C1
:100480003A828B829C8269817A818B819C810E94D5
:10049000D41118163CF4D801AD92BC92ED81FE81C6
:1004A000D382C2828D819E8102969E838D83B9CF35
:1004B0000E5F1F4FBAE0EB16F10409F0ADCF65E017
:1004C00070E08FE890E026960FB6F894DEBF0FBE7E
:1004D000CDBFDF91CF911F910F91FF90EF90DF90F3
:1004E000CF90BF90AF909F908F907F906F905F90D4
:1004F0004F903F902F900C94BD0183BD08951FBC79
:100500008BE08EBD82EE94E09BBD8ABD89B7806191
:1005100089BF08958F9A88E685BD85B5816085BDC0
:1005200013BC08950E94BF0D54988FEF84BB81BB0C
:100530008ABB87BB0E94440F0E94D20F0E947F0299
:100540000E948A027894089580918E008F5F809334
:100550008E0080918E008530C8F010928E009091B0
:10056000610080916100953110F4833028F480910E
:10057000600081958093600080916000909161009F
:10058000890F809361008091610083BD08951F925F
:100590000F920FB60F9211242F933F934F935F93B7
:1005A0006F937F938F939F93AF93BF93EF93FF933B
:1005B000CF93DF930F92CDB7DEB70E94A402809154
:1005C0008D008F5F80938D0080918D00833340F08C
:1005D00090918C0081E0891B80938C0010928D009B
:1005E00084E0898390918C008091A30021E0AE018A
:1005F0004F5F5F4F62E370E0892B0E94DB000F903A
:10060000DF91CF91FF91EF91BF91AF919F918F912A
:100610007F916F915F914F913F912F910F900FBEFE
:100620000F901F9018950F931F930097B9F00197A3
:10063000B0E0A0E050E040E08C019D010027012BDC
:10064000022B032B39F0B695A795979587954F5FA9
:100650005F4FF2CF342F2227822B932B1F910F91C4
:100660000895CF93DF93D82FC62F80916C000E94FE
:10067000480F8D2F0E94980F8C2F0E94980FDF91AA
:10068000CF910C948E0F1F93CF93DF93182FEB0114
:1006900080916C000E94480F812F0E94980F8D2F2F
:1006A0000E94980F8C2F0E94980FDF91CF911F917D
:1006B0000C948E0FFF920F931F93CF93DF93F82E1E
:1006C000EA01162F072F80916C000E94480F8F2D92
:1006D0000E94980F802F0E94980F812F0E94980FE0
:1006E0008D2F0E94980F8C2F0E94980FDF91CF9131
:1006F0001F910F91FF900C948E0FCF93C82F809174
:100700006C000E94480F8C2F0E94980F80916C0003
:1007100081600E948C0F0E94B80FC82F0E948E0F1C
:100720008C2FCF910895CF93DF93C82F80916C00C9
:100730000E94480F8C2F0E94980F80916C0081605E
:100740000E948C0F0E94AB0FC82FD0E0DC2FCC276B
:100750000E94B80FC82B0E948E0FCE01DF91CF915F
:100760000895CF92DF92EF92FF92CF93DF9300D064
:1007700000D0CDB7DEB7898380916C000E94480F0E
:1007800089810E94980F80916C0081600E948C0F7B
:100790000E94AB0F90E0B0E0A0E0F82EEE24DD2444
:1007A000CC240E94AB0FE82A0E94AB0F89830E94E1
:1007B000B80FC82AD701C6012981922B89839A8351
:1007C000AB83BC830E948E0F69817A818B819C816F
:1007D0000F900F900F900F90DF91CF91FF90EF90BF
:1007E000DF90CF900895FF920F931F93CF93DF93E5
:1007F000C82FF62E072F142F80916C000E94480FEF
:100800008C2F0E94980F115040F0CF2DD02F89913E
:100810000E94980FFC2E0D2FF6CFDF91CF911F91E4
:100820000F91FF900C948E0FEF92FF920F931F93F6
:10083000CF93DF93082FEB01142F80916C000E945F
:10084000480F802F0E94980F80916C0081600E9459
:100850008C0F112379F07E018FEFE81AF80A12301D
:1008600030F00E94AB0F88831150E701F2CF0E9455
:10087000B80FF9CFDF91CF911F910F91FF90EF90BB
:100880000C948E0FCF93C82F682F66958AE80E942C
:100890003103C0936C00CF91089580916C0008954E
:1008A0000F931F93CF93DF9300D000D000D0CDB72C
:1008B000DEB78B018E839D8320E030E0A901698340
:1008C0001A838B839C8369817A818B819C810E94AE
:1008D000161187FD2FC028EB3EEF4FEF53E46981DF
:1008E0007A818B819C810E94D41118161CF120E022
:1008F00030E040E053E469817A818B819C810E94E1
:10090000D91169837A838B839C8369817A818B81F6
:100910009C810E941B1184E40E94430381E026967F
:100920000FB6F894DEBF0FBECDBFDF91CF911F9100
:100930000F91089580E0F3CFCF93DF9300D000D0E4
:10094000CDB7DEB784E40E9493039C0150E040E001
:1009500029833A834B835C83CA01B9010E944A11FF
:1009600020E030E040E05CE369837A838B839C8302
:1009700069817A818B819C810E94D91169837A83F4
:100980008B839C8369817A818B819C810F900F90EE
:100990000F900F90DF91CF9108959C0180E5211574
:1009A000310521F02130310531F480E70E947D03CB
:1009B0008F5F880F08958FEF0895CF92DF92EF92A7
:1009C000FF926B017C0161E080E80E94310361E0ED
:1009D0008FEF0E94310360E080E00E94310360915C
:1009E000B60081E90E94310361E080E00E9431039A
:1009F00060E08FEF0E94310360E080E80E943103E5
:100A000062E0C114D104E104F10491F088EF0E9486
:100A10009303DC01892B31F0A70196010E94F410A9
:100A20006B017C01B701A60184E00E945A0364E0D7
:100A300080E0FF90EF90DF90CF900C94310361E065
:100A400080E00E94310361E08FEF0E94310360E09B
:100A500080E00E94310360E081E90E94310361E09F
:100A600080E00E94310360E08FEF0C943103EF923D
:100A7000FF920F931F93CF93DF93CDB7DEB76097AD
:100A80000FB6F894DEBF0FBECDBF7C010E94DC0F15
:100A90007093B8006093B70083E10E947D03877074
:100AA00079F58091BA009091BB00892BA9F30E943F
:100AB000DC0F6D877E878F87988B8091B700909130
:100AC000B8002D853E85281B390BC9012091BA003D
:100AD0003091BB0028173907F8F681E08093B90000
:100AE0000FEF1FEFC80160960FB6F894DEBF0FBE80
:100AF000CDBFDF91CF911F910F91FF90EF9008959F
:100B0000E114F10449F48EE10E9493038C0161E049
:100B10008BE00E943103E6CF4CE0BE016F5F7F4F58
:100B200084E10E941404898190E023E095958795E3
:100B30002A95E1F7F70180878B819C819827892787
:100B40009827978386838F81988598278927982768
:100B50009383828389859A85982789279827958307
:100B600084830B851C8510270127102711830083A0
:100B7000CECFCF93DF9300D000D000D0CDB7DEB77B
:100B80008E839D8361E080E80E94310361E08FEFF6
:100B90000E94310360E080E00E9431036091B60062
:100BA00081E90E94310361E080E00E94310360E04E
:100BB0008FEF0E94310360E080E80E94310361E022
:100BC00080E00E9431030E94DC0F7093B8006093B4
:100BD000B70080E00E947D0380FF2AC08091BA00A8
:100BE0009091BB00892BA9F30E94DC0F69837A8363
:100BF0008B839C838091B7009091B80029813A81C2
:100C0000281B390BC9012091BA003091BB0028176D
:100C10003907F8F681E08093B9008FEF9FEF2696B1
:100C20000FB6F894DEBF0FBECDBFDF91CF91089510
:100C30008E819D8126960FB6F894DEBF0FBECDBF84
:100C4000DF91CF910C9437058091B9001092B900D3
:100C500008959093BB008093BA0008958091BA00E4
:100C60009091BB000895EF92FF920F931F93CF9343
:100C7000DF9300D000D00F92CDB7DEB77C018B019F
:100C800061E080E80E94310361E08FEF0E94310350
:100C900060E080E00E94310366E08FEF0E94310344
:100CA00083E80E947D03682F646083E80E9431031B
:100CB00067E08FEF0E94310361E081E80E94310319
:100CC00061E080E80E9431036BE684E90E94310311
:100CD00060E083E80E9431030E94DC0F7093B8004B
:100CE0006093B70083E80E947D038D83811129C042
:100CF0008091BA009091BB00892BA1F30E94DC0F78
:100D000069837A838B839C838091B7009091B8002C
:100D100029813A81281B390BC9012091BA003091F1
:100D2000BB0028173907F0F68D810F900F900F90B8
:100D30000F900F90DF91CF911F910F91FF90EF9047
:100D4000089561E083E80E94310382E90E947D03F7
:100D5000982F9F77F7019083881F8827881FF801B5
:100D6000808360E081E80E94310366E08FEF0E949B
:100D7000310383E80E947D03682F6B7F83E80E9424
:100D8000310361E08FEF0E94310361E080E00E9457
:100D9000310360E08FEF0E94310360E080E80E9441
:100DA0003103F1E0FD83C0CFCF93DF93EC0181E00D
:100DB0000E947D0384FB992790F9988383FB9927F0
:100DC00090F99A8382FB992790F9998386FB99275A
:100DD00090F99B83881F8827881F8C83DF91CF9190
:100DE00008954F925F926F927F928F929F92AF92EF
:100DF000BF92EF92FF920F931F93CF93DF93CDB7E4
:100E0000DEB72A970FB6F894DEBF0FBECDBF8C01B8
:100E100069877A8790E080E00E94CD0490E0A98500
:100E2000BA858D939C9386E40E947D03E82EF12C75
:100E3000BFEFEB1AFB0AE985FA85F582E482A0810F
:100E4000B0E020E03FE24AE350E00E94F410DC0111
:100E5000CB018C509E4FAF4FBF4F89839A83AB839A
:100E6000BC8338EE832E33E0932EA12CB12CBC0131
:100E7000CD01A50194010E94D210D7010E94FF105C
:100E80006D837E838F83988740ED442E47E0542EF8
:100E9000612C712C69817A818B819C81A3019201E3
:100EA0000E94D2108D819E81AF81B885820F931FE1
:100EB000A41FB51F8D839E83AF83B887BC01CD016E
:100EC000A50194010E94D210A985BA851A962D9386
:100ED0003D934D935C931D9781E50E949303E82E0B
:100EE000F12C02C0EE0CFF1C9A95E2F7BFEFEB1A53
:100EF000FB0AE985FA85F782E682A081B0E020E06E
:100F00003FE24AE350E00E94F410DC01CB018C5038
:100F10009E4FAF4FBF4F89839A83AB83BC83BC0185
:100F2000CD01A50194010E94D210D7010E94F410B6
:100F30006D837E838F83988769817A818B819C8181
:100F4000A30192010E94D2108D819E81AF81B8854C
:100F5000820F931FA41FB51F8D839E83AF83B88715
:100F6000BC01CD01A50194010E94D210A985BA85CA
:100F70001E962D933D934D935C93519780E70E946D
:100F80007D038F5F880F90E0E985FA8593838283E4
:100F900081E70E949303292F90E002C0880F991FD8
:100FA0002A95E2F70196A985BA8519969C938E93A6
:100FB0001897F8012381222351F016962D913C9128
:100FC0001797821B930B19969C938E931897E9851C
:100FD000FA85A281B0E020E03FE24AE350E00E94BF
:100FE000F410DC01CB018C509E4FAF4FBF4F898373
:100FF0009A83AB83BC8328EE822E23E0922EA12C11
:10100000B12CBC01CD01A50194010E94D210E9854B
:10101000FA85A085B1850E94F4106D837E838F834D
:10102000988769817A818B819C8120ED37E040E04F
:1010300050E00E94D2108D819E81AF81B885820FD1
:10104000931FA41FB51FBC01CD01A50194010E94EF
:10105000D210A985BA8552962D933D934D935C93FA
:1010600055972A960FB6F894DEBF0FBECDBFDF911D
:10107000CF911F910F91FF90EF90BF90AF909F90F5
:101080008F907F906F905F904F9008958F929F9276
:10109000AF92BF92CF92DF92EF92FF921F93CF93C6
:1010A000DF93CDB7DEB7A3970FB6F894DEBF0FBEC0
:1010B000CDBF4B015C0120E282162EE49206A10412
:1010C000B10408F4CCC0CE0147960E94D406BE01FC
:1010D0006F5F7F4FCE0147960E94F1068F8988236C
:1010E00009F4ABC08B859C85AD85BE858A5C944F29
:1010F000AF4FBF4F298D222309F4A4C04B855C85D7
:101100006D857E854E545D4F6F4F7F4F440F551F49
:10111000661F771F840F951FA61FB71F1A8D1123F7
:1011200061F04F85588969897A894C565D4F6F4FB8
:101130007F4F840F951FA61FB71F2B8D222309F405
:1011400069C06C017D0126E2C20E22E0D21EE11CC4
:10115000F11C8C149D04AE04BF0408F480C0AB8164
:10116000B0E020E03FE24AE350E00E94F410DC01EE
:10117000CB018C509E4FAF4FBF4F8C8F9D8FAE8F4A
:10118000BF8FA50194012C193D094E095F09A8EEF6
:10119000B3E00E94F41068A379A38AA39BA36C8D8B
:1011A0007D8D8E8D9F8D20ED37E040E050E00E94D8
:1011B000D21088A199A1AAA1BBA1820F931FA41F3D
:1011C000B51F88A399A3AAA3BBA36C8D7D8D8E8D1B
:1011D0009F8D28EE33E040E050E00E94D21068A1DD
:1011E00079A18AA19BA10E94D210C901112321F0EB
:1011F0008F819885820F931F0E941303BC0181E7A2
:101200000E9443038092B2009092B300A092B40077
:10121000B092B50081E0A3960FB6F894DEBF0FBE82
:10122000CDBFDF91CF911F91FF90EF90DF90CF90D6
:10123000BF90AF909F908F90089588EE98E0A0E0C7
:10124000B0E058CF288D222309F468CF4B855C8508
:101250006D857E854C565D4F6F4F7F4F5BCF80E035
:10126000DACF0F931F93CF93DF93CDB7DEB76B9792
:101270000FB6F894DEBF0FBECDBFCE0147960E94D9
:10128000D406BE016F5F7F4FCE0147960E94F106E4
:101290008F89882309F44DC06B857C858D859E855B
:1012A0006C57724F8F4F9F4F298D222309F446C0F0
:1012B0000B851C852D853E850E541D4F2F4F3F4FAE
:1012C000000F111F221F331F600F711F821F931FFA
:1012D0002A8D222361F00F85188929893A890C56B5
:1012E0001D4F2F4F3F4F600F711F821F931F2B8D7C
:1012F000222361F00B891C892D893E890A5D1D4FCF
:101300002F4F3F4F600F711F821F931F6093B200DA
:101310007093B3008093B4009093B5006B960FB6B2
:10132000F894DEBF0FBECDBFDF91CF911F910F911B
:10133000089566E37BE080E090E0B6CF288D22231D
:1013400039F20B851C852D853E850C561D4F2F4F80
:101350003F4FBACFCF93DF9300D000D00F92CDB7DD
:10136000DEB7682F616080E00E9431030E94DC0FCD
:101370007093B8006093B70083E10E947D0387708B
:101380008D83811125C08091BA009091BB00892B7B
:1013900099F30E94DC0F69837A838B839C8380910D
:1013A000B7009091B80029813A81281B390BC901F7
:1013B0002091BA003091BB0028173907E8F68D81DB
:1013C0000F900F900F900F900F90DF91CF91089595
:1013D00061E08BE00E94310360E080E00E94310315
:1013E00031E03D83ECCF0F931F93CF93DF93CDB7C5
:1013F000DEB72C970FB6F894DEBF0FBECDBF8823A3
:1014000041F089E80E947D03682F616089E80E94AD
:10141000310360E088E80E94310361E080E80E94C7
:10142000310361E08FEF0E94310360E080E00E94B1
:10143000310381E90E947D038093B60061E080E082
:101440000E94310360E08FEF0E94310360E080E88A
:101450000E94310380E60E947D03682F626180E66E
:101460000E94310360E270E084E40E9443036FEF66
:1014700081E00E943103BE01695F7F4FCE01089673
:101480000E94330681110CC080E02C960FB6F894B0
:10149000DEBF0FBECDBFDF91CF911F910F91089599
:1014A00046E0BE016F5F7F4F80EB0E94140461E055
:1014B0008FEF0E94310360E08FE40E9431036CE201
:1014C0008EE40E94310360E08FEF0E94310364EBF1
:1014D00086EB0E9431039F8191119CE0B88580E0EA
:1014E000A0E001E010E0482F46954695469550E073
:1014F00021E030E02C0F3D1F240F351FF901208122
:10150000682F6770891710F0BA139FC1E1E0F0E00F
:10151000EC0FFD1F4E0F5F1FF80102C0EE0FFF1F03
:101520006A95E2F7BF0160952623FA0120838F5F59
:101530008033C9F646E0BE016F5F7F4F80EB0E94AB
:10154000F30361E08FEF0E94310360E080E00E94CE
:10155000310360E08FEF0E94310360E089E00E9478
:10156000310360E080E10E94310360E081E10E948C
:10157000310361E084E20E9431036FEF85E20E9453
:10158000310360E085E70E94310361E08FEF0E9444
:1015900031036CE28EE40E94310360E088E40E9433
:1015A000310360E280E30E94310360E08FEF0E942C
:1015B000310369E080E30E94310360E084E50E942A
:1015C000310364E081E30E94310363E082E30E941F
:1015D000310363E880E40E94310365E286E40E94FF
:1015E000310360E080E60E94310360E087E20E9400
:1015F000310366E080E50E94310360E081E50E94EE
:10160000310366E982E50E94310368E086E50E94C5
:10161000310360E387E50E94310360E081E60E94C8
:10162000310360E082E60E94310360E084E60E94BC
:10163000310360E085E60E94310360EA86E60E949D
:10164000310361E08FEF0E94310362E382E20E9486
:10165000310364E187E40E9431036FEF89E40E9463
:10166000310360E08AE40E94310360E08FEF0E9462
:1016700031036AE08AE70E94310360E08BE70E9451
:10168000310361E288E70E94310361E08FEF0E943D
:10169000310364E383E20E94310360E082E40E944C
:1016A00031036FEF84E40E94310366E285E40E9417
:1016B000310365E086E40E94310360E480E40E9427
:1016C000310366E08EE00E9431036AE180E20E940D
:1016D000310360E483E40E94310360E08FEF0E94F5
:1016E000310363E084E30E94310364E485E30E94F4
:1016F000310361E08FEF0E94310364E081E30E94D7
:10170000310369E08BE40E94310365E08CE40E94C0
:10171000310364E08DE40E94310360E08FEF0E94AA
:10172000310360E084E40E94310360E285E40E94BA
:10173000310368E087E40E94310368E288E40E9494
:10174000310360E087E60E94310364E080E70E9495
:10175000310361E081E70E9431036EEF82E70E946E
:10176000310360E086E70E94310360E087E70E9472
:10177000310361E08FEF0E94310361E08DE00E9450
:10178000310360E08FEF0E94310361E080E80E9446
:10179000310368EF81E00E94310361E08FEF0E9426
:1017A000310361E08EE80E94310361E080E00E9435
:1017B000310360E08FEF0E94310360E080E80E9417
:1017C000310364E08AE00E94310384E80E947D03D3
:1017D000682F6F7E84E80E94310361E08BE00E94F5
:1017E00031030E9431096093B2007093B30080937B
:1017F000B4009093B50068EE81E00E9431038091BF
:10180000B2009091B300A091B400B091B500BC01BA
:10181000CD010E94460861E081E00E94310380E42E
:101820000E94AA09882309F42FCE62E081E00E9479
:10183000310380E00E94AA09882309F425CE68EECE
:1018400081E00E94310381E020CE30E002C0359576
:1018500027956A95E2F720FF6ACEAF5F68CE8F9238
:101860009F92AF92BF92CF92DF92EF92FF920F932F
:101870001F93CF93DF93CDB7DEB7A3970FB6F8943E
:10188000DEBF0FBECDBF7C01162F062F069501507F
:10189000CE0147960E94D406BE016F5F7F4FCE01F6
:1018A00047960E94F106E114F10409F0B3C010312B
:1018B00009F4AEC040F41C3009F4A8C060E31E3047
:1018C00029F080E090C060E51231D9F787E50E94E9
:1018D000310368E086E50E943103602F80E50E94B5
:1018E0003103A12FB0E020E03FE24AE350E00E9444
:1018F000F410DC01CB018C509E4FAF4FBF4F8C8F4B
:101900009D8FAE8FBF8FBC01CD0128EE33E040E04C
:1019100050E00E94D21049015A016C8D7D8D8E8D50
:101920009F8D20ED37E040E050E00E94D210690129
:101930007A012F85388949895A89A8EEB3E00E9437
:10194000F410DC01CB018C0D9D1DAE1DBF1D8C8FD5
:101950009D8FAE8FBF8FBC01CD01A50194010E9468
:10196000D210C9010E941303BC0181E50E94430308
:101970002B853C854D855E85A8EEB3E00E94F41072
:10198000DC01CB018C0D9D1DAE1DBF1DBC01CD0129
:10199000A50194010E94D210213091E0390710F086
:1019A00020E031E06FEF620F86E40E943103809106
:1019B000B2009091B300A091B400B091B500BC0109
:1019C000CD010E94460881E00E947D03182F62E04D
:1019D00081E00E94310380E00E94AA09612F81E02A
:1019E0000E94310381E0A3960FB6F894DEBF0FBECC
:1019F000CDBFDF91CF911F910F91FF90EF90DF90BE
:101A0000CF90BF90AF909F908F90089568E15ECF88
:101A100060E45CCFEA94EF2809F053CF1C3009F45E
:101A2000A0C0D8F4183051F11A3009F04ACF68E25A
:101A300088E40E94310368E087E40E94310363E098
:101A400082E30E94310369E080E30E94310361E098
:101A50008FEF0E94310360E226C01E3009F031CFC3
:101A600068E488E40E94310368E087E40E9431035F
:101A700063E082E30E94310367E0E6CF60E188E43F
:101A80000E94310368E087E40E94310362E082E350
:101A90000E9431036CE080E30E94310361E08FEF2C
:101AA0000E94310360E380E30E94310360E08FEF26
:101AB0000E943103602F80E70E943103A12FB0E024
:101AC00020E03FE24AE350E00E94F410DC01CB0149
:101AD0008C509E4FAF4FBF4F8C8F9D8FAE8FBF8F5F
:101AE0002B893C894D895E89A8EEB3E00E94F410F1
:101AF00068A379A38AA39BA36C8D7D8D8E8D9F8D0A
:101B000020ED37E040E050E00E94D21088A199A17A
:101B1000AAA1BBA1820F931FA41FB51F88A399A3DD
:101B2000AAA3BBA36C8D7D8D8E8D9F8D28EE33E097
:101B300040E050E00E94D21068A179A18AA19BA147
:101B40000E94D210C9016A8D662321F08F81988589
:101B5000820F931F0E941303BC0181E70E9443037D
:101B600026CF68E388E40E94310368E087E40E949E
:101B7000310363E082E30E94310368E065CF8AB1FC
:101B800088618AB910BC88E089B9599A08955D9B2B
:101B9000FECF8CB908959FE9980F963010F48755C1
:101BA000089580538A3008F08FEF08951F93CF93E4
:101BB000DF93EC01FE011491112351F0812F0E945B
:101BC000C70D1A3019F48DE00E94C70D2196F2CF8F
:101BD000DF91CF911F9108958F929F92AF92BF9204
:101BE000EF92FF920F931F93CF93DF93CDB7DEB7A2
:101BF0002E970FB6F894DEBF0FBECDBF6B877C87E4
:101C00008D879E878E010F5F1F4F78018AE0882E97
:101C1000912CA12CB12C8B859C85AD85BE85892B03
:101C20008A2B8B2B19F4E016F10681F46B857C85E9
:101C30008D859E85A50194010E94D210D8016D93D7
:101C40008D012B873C874D875E87E5CFF801829118
:101C50008F01805D0E94C70DE016F106B9F72E9640
:101C60000FB6F894DEBF0FBECDBFDF91CF911F91AD
:101C70000F91FF90EF90BF90AF909F908F9008953D
:101C80008F929F92AF92BF92CF92DF92EF92FF928C
:101C9000CF93DF9300D000D000D0CDB7DEB76B017B
:101CA0007C01842F90E09E838D8388248394912CE3
:101CB000042E02C0880C991C0A94E2F791E0891A5C
:101CC0009108092C000CAA08BB08D701CB0104C05D
:101CD000B695A795979587954A95D2F7BC01CD0102
:101CE0000E94EC0D8EE20E94C70DA50194012C21EB
:101CF0003D214E215F212115310541055105F1F0AE
:101D0000AAE0B0E00E94F41069837A838B839C83FD
:101D1000DC01CB010D8004C0B695A79597958795FA
:101D20000A94D2F7805D0E94C70D29813A814B81C8
:101D30005C81282139214A215B21DDCF26960FB60F
:101D4000F894DEBF0FBECDBFDF91CF91FF90EF9033
:101D5000DF90CF90BF90AF909F908F900895CF92DB
:101D6000DF92EF92FF92CF93DF936B017C01842F80
:101D70008150990BEC01CC0FDD1FCC0FDD1FD7FD7F
:101D800016C0D701C6010C2E04C0B695A79597952D
:101D900087950A94D2F78F709927AA27BB2789586D
:101DA0009F4FFC0180810E94C70D2497E8CFDF91EF
:101DB000CF91FF90EF90DF90CF900895EF92FF9238
:101DC0000F931F93CF93DF93CDB7DEB72A970FB64C
:101DD000F894DEBF0FBECDBF8C017B0119821A8241
:101DE0001B821C8289819A818E159F0508F03FC055
:101DF00021E1E216F10498F08F709927892B79F48C
:101E00008DE590E00E94D60D44E069817A818B8156
:101E10009C810E94AF0E8AE590E00E94D60D098752
:101E20001A87A985BA858D91BA87A987282F30E0AE
:101E300050E040E02D833E834F83588742E06D8120
:101E40007E818F8198850E94AF0E88E590E00E9488
:101E5000D60D89819A81AB81BC810196A11DB11DEE
:101E600089839A83AB83BC8309851A85BBCF2A9665
:101E70000FB6F894DEBF0FBECDBFDF91CF911F919B
:101E80000F91FF90EF90089511B882E080B9089506
:101E900094EA96BF2FEF3FEF2150310911F481E012
:101EA000089506B607FEF8CF91B1987F983011F0EB
:101EB0009031A9F783B984E886BF8FEF9FEF019730
:101EC00071F306B607FEFBCF91B1987F983119F0F8
:101ED00081E0903411F480E00895089524EA34E814
:101EE00044E926BF06B607FEFDCF91B1987F983032
:101EF00011F09031B1F783B936BF06B607FEFDCFBA
:101F000091B1987F903211F0983529F446BF06B60A
:101F100004FCFDCFE6CF08950C94480F84E986BFFA
:101F20008FEF9FEF019719F006B604FCFBCF0895E1
:101F300083B984E886BF8FEF9FEF019751F006B613
:101F400007FEFBCF91B1987F81E0983209F480E0E1
:101F5000089581E0089584EC86BF8FEF9FEF01978D
:101F600029F006B607FEFBCF83B1089580E00895FF
:101F700084E886BF8FEF9FEF019729F006B607FE32
:101F8000FBCF83B1089580E00895CF93C0E08C2FFC
:101F9000880F0E94480F0E948E0FCF5FC038B9F79C
:101FA000CF91089588E083BF83B7836083BF8DE7B7
:101FB0008CBF82E089BF0895CF93DF9300D000D01B
:101FC000CDB7DEB78FB7F8942091BC003091BD003B
:101FD0004091BE005091BF0029833A834B835C83BC
:101FE0008FBF69817A818B819C810F900F900F90B8
:101FF0000F90DF91CF9108951F921FB61F92112469
:102000008F939F93AF93BF938091BC009091BD003D
:10201000A091BE00B091BF000196A11DB11D80939B
:10202000BC009093BD00A093BE00B093BF00809110
:10203000C00091E0980F9D3750F49093C000BF917D
:10204000AF919F918F911F901FBE1F9018958C5735
:102050008093C0008091BC009091BD00A091BE0013
:10206000B091BF000196A11DB11D8093BC0090935B
:10207000BD00A093BE00B093BF00E1CF0E949202CA
:1020800080E00E94F3096DEC7CEC8CEC9DE30E94F7
:10209000500462E190E080E00E942F0C6EE081E04D
:1020A00090E00E942F0C60E271EA87E090E00E94CD
:1020B000460880E090E00E946E129093AD008093FD
:1020C000AC0084E6F82E0EEB10E0C4E6D0E00E94EF
:1020D00005010E94DC0F462F572FBC018091AE00F6
:1020E0009091AF00A091B000B091B100892B8A2BE4
:1020F0008B2BA9F08091AE009091AF00A091B00021
:10210000B091B1005A016B01A81AB90ACA0ADB0AD8
:10211000D601C501883C9105A105B105C0F24093E7
:10212000AE005093AF006093B0007093B1000E9476
:1021300087019C0181608F3F9F4149F28091AC00F3
:102140009091AD005C01A21AB30AFA9CC001FB9CFD
:10215000900D1124B8010E94BE107093A9006093E5
:10216000A8008091A8009091A9008536910508F4F7
:10217000AECFD093A900C093A800A9CFAA1BBB1BC8
:1021800051E107C0AA1FBB1FA617B70710F0A61B77
:10219000B70B881F991F5A95A9F780959095BC0198
:1021A000CD010895A1E21A2EAA1BBB1BFD010DC093
:1021B000AA1FBB1FEE1FFF1FA217B307E407F507F7
:1021C00020F0A21BB30BE40BF50B661F771F881FD3
:1021D000991F1A9469F760957095809590959B0169
:1021E000AC01BD01CF0108950E940711A59F900D7C
:1021F000B49F900DA49F800D911D11240895B7FFE9
:102200000C94F4100E94F410821B930B0895A29F6B
:10221000B001B39FC001A39F700D811D1124911DBA
:10222000B29F700D811D1124911D08950E94871188
:1022300008F481E008950E94B31188F09F5798F048
:10224000B92F9927B751B0F0E1F0660F771F881FBB
:10225000991F1AF0BA95C9F714C0B13091F00E94D5
:10226000CD11B1E008950C94CD11672F782F8827F8
:10227000B85F39F0B93FCCF3869577956795B395FC
:10228000D9F73EF490958095709561957F4F8F4F6B
:102290009F4F0895E89409C097FB3EF49095809570
:1022A000709561957F4F8F4F9F4F9923A9F0F92F1C
:1022B00096E9BB279395F695879577956795B7959A
:1022C000F111F8CFFAF4BB0F11F460FF1BC06F5F80
:1022D0007F4F8F4F9F4F16C0882311F096E911C092
:1022E000772321F09EE8872F762F05C0662371F0B3
:1022F00096E8862F70E060E02AF09A95660F771FC7
:10230000881FDAF7880F9695879597F90895990FA2
:102310000008550FAA0BE0E8FEEF16161706E807AF
:10232000F907C0F012161306E407F50798F0621BD0
:10233000730B840B950B39F40A2661F0232B242BA5
:10234000252B21F408950A2609F4A140A6958FEFC4
:10235000811D811D089557FD9058440F551F59F058
:102360005F3F71F04795880F97FB991F61F09F3F82
:1023700079F087950895121613061406551FF2CFAB
:102380004695F1DF08C0161617061806991FF1CFFB
:1023900086957105610508940895E894BB27662722
:1023A0007727CB0197F908950E94871108F48FEFE2
:1023B00008950E94EC110C945D120E944F1238F0A7
:1023C0000E94561220F0952311F00C9446120C94A2
:1023D0004C1211240C94CE110E94AB1170F3959FF6
:1023E000C1F3950F50E0551F629FF001729FBB270C
:1023F000F00DB11D639FAA27F00DB11DAA1F649FA8
:102400006627B00DA11D661F829F2227B00DA11D5A
:10241000621F739FB00DA11D621F839FA00D611DE0
:10242000221F749F3327A00D611D231F849F600D01
:10243000211D822F762F6A2F11249F5750409AF02A
:10244000F1F088234AF0EE0FFF1FBB1F661F771FB6
:10245000881F91505040A9F79E3F510580F00C9481
:1024600046120C94CE115F3FE4F3983ED4F3869568
:1024700077956795B795F795E7959F5FC1F7FE2B21
:10248000880F911D9695879597F9089597F99F67FD
:1024900080E870E060E008959FEF80EC08950024EC
:1024A0000A941616170618060906089500240A94B9
:1024B00012161306140605060895092E0394000C3F
:1024C00011F4882352F0BB0F40F4BF2B11F460FFCE
:1024D00004C06F5F7F4F8F4F9F4F0895A8E1B0E01A
:1024E00042E050E00C947612DC01CB01FC01E19952
:1024F000FECF06C0FFBBEEBBE09A31960DB20D9247
:0C25000041505040B8F70895F894FFCF08
:10250C0001143F065B4F666D7D077F6F520002031F
:10251C0002030405060700303132333435363738C0
:08252C003941424344454600D9
:00000001FF
