:100000000C9432000C944F000C944F000C944F0051
:100010000C944F000C944F000C9475020C944F00FC
:100020000C944F000C944F000C944F000C944F0014
:100030000C944F000C944F000C944F000C944F0004
:100040000C944F000C944F000C944F000C94930FA1
:100050000C944F00636D200020003A20000A2020FD
:100060002020000011241FBECFE5D4E0DEBFCDBFAD
:1000700010E0A0E6B0E0E6EAF3E202C005900D92DF
:10008000AE37B107D9F720E0AEE7B0E001C01D926E
:10009000AD3AB207E1F70E94D50F0C94D1110C9440
:1000A0000000CF93DF9300D000D0CDB7DEB7262F6E
:1000B0008536910510F084E690E06AE070E00E94D9
:1000C000211080E090E0DC01615030F0880F991F32
:1000D000AA1FBB1F8160F8CFAC01BD0104C0440F53
:1000E000551F661F771F2A95D2F7CB01BA010F90D3
:1000F0000F900F900F90DF91CF91089530E020E0A6
:1001000090E0682F70E0AB01022E02C05595479534
:100110000A94E2F74170990F942B2F5F3F4F2830DC
:10012000310589F7892F0895CF92DF92EF92FF92E0
:100130000F931F93CF93DF9300D000D0CDB7DEB7DE
:100140001A821982042F10E02AE0C22ED12CE12C51
:10015000F12C29813A81201731076CF4A70196010F
:100160000E943510B901CA0129813A812F5F3F4FA2
:100170003A832983EECF2AE030E040E050E00E944D
:10018000351069837A838B839C83E981FA81EE59E8
:10019000FF4F80810F900F900F900F90DF91CF91C4
:1001A0001F910F91FF90EF90DF90CF900895CF9324
:1001B000DF9300D000D0CDB7DEB78091980090914A
:1001C000990060E00E945100609394007093950044
:1001D0008093960090939700660F660F65BB8091A1
:1001E00098009091990020E18036910520F42091AB
:1001F00093002295207F409194005091950060914A
:1002000096007091970086E076956795579547958B
:100210008A95D1F7DB01CA01880F991FAA1FBB1F5E
:100220008C709927AA27BB27417055276627772707
:10023000842B822B82BB8091980090919900843608
:1002400008F083E6282F30E050E040E029833A832D
:100250004B835C8341E069817A818B819C810E9420
:1002600094008BBB40E069817A818B819C810E94E4
:10027000940088BB0F900F900F900F90DF91CF915B
:100280000895CF93DF93CDB7DEB72D970FB6F894CF
:10029000DEBF0FBECDBFCE0101960E9450056AE0C1
:1002A00070E00E94211070939B0060939A008091EF
:1002B0009A0090919B009C0150E040E02A873B8788
:1002C0004C875D87CA01B9010E94830D84E590E0E7
:1002D0000E946D0D80919A0090919B002D960FB613
:1002E000F894DEBF0FBECDBFDF91CF9108959B0183
:1002F000FC0170E060E090E080E06217730739F085
:1003000041915191840F951F6F5F7F4FF6CF0E94EF
:100310002110CB0108952F923F924F925F926F92DE
:100320007F928F929F92AF92BF92CF92DF92EF9285
:10033000FF920F931F93CF93DF9300D000D000D094
:10034000CDB7DEB78FE790E09A838983A981BA8120
:10035000A359B04071F00E9441019C0181608F3F20
:100360009F41A1F3A981BA812D933D93BA83A983BB
:10037000EDCF6AE070E08FE790E00E9477012C01FA
:10038000712C612C0FE710E0F12CE12CEFEFEE1A4D
:10039000FE0A1E830D838D819E81A0E081399A071C
:1003A00009F440C0F801C080D180DC011296AD9004
:1003B000BC90D301C2018C199D09A109B10989839F
:1003C0009A83AB83BC83BC01CD010E94AD101B019D
:1003D0004C01D301C2018A199B09A109B109898382
:1003E0009A83AB83BC83BC01CD010E94AD109B01FD
:1003F000AC0129823A828B829C8269817A818B81CD
:100400009C810E94371118163CF4D801AD92BC9221
:10041000ED81FE81D382C2828D819E8102969E8370
:100420008D83B9CF0E5F1F4FBAE0EB16F10409F0D0
:10043000ADCF65E070E08FE790E026960FB6F894B8
:10044000DEBF0FBECDBFDF91CF911F910F91FF9007
:10045000EF90DF90CF90BF90AF909F908F907F9064
:100460006F905F904F903F902F900C94770183BDD9
:1004700008951FBC8BE08EBD82EE94E09BBD8ABDCB
:1004800080E189BF08958F9A88E685BD85B5816032
:1004900085BD13BC08950E94560D54988FEF84BB00
:1004A00081BB8ABB87BB0E94DB0E0E94690F0E9442
:1004B00039020E94430278940895909161008091DE
:1004C0006100953610F4843128F4809160008195A4
:1004D000809360008091600090916100890F80930B
:1004E00061008091610083BD08951F920F920FB645
:1004F0000F9211242F933F934F935F936F937F93AA
:100500008F939F93AF93BF93EF93FF930E945D02EE
:1005100080917E008F5F80937E0080917E008B3083
:1005200040F010927E009091930081E0891B8093AF
:100530009300FF91EF91BF91AF919F918F917F9128
:100540006F915F914F913F912F910F900FBE0F9040
:100550001F9018950F931F930097B9F00197B0E083
:10056000A0E050E040E08C019D010027012B022B10
:10057000032B39F0B695A795979587954F5F5F4FF9
:10058000F2CF342F2227822B932B1F910F910895A6
:10059000CF93DF93D82FC62F80916C000E94DF0E7F
:1005A0008D2F0E942F0F8C2F0E942F0FDF91CF9144
:1005B0000C94250F1F93CF93DF93182FEB0180919D
:1005C0006C000E94DF0E812F0E942F0F8D2F0E9442
:1005D0002F0F8C2F0E942F0FDF91CF911F910C9422
:1005E000250FFF920F931F93CF93DF93F82EEA010D
:1005F000162F072F80916C000E94DF0E8F2D0E9416
:100600002F0F802F0E942F0F812F0E942F0F8D2FD1
:100610000E942F0F8C2F0E942F0FDF91CF911F91DF
:100620000F91FF900C94250FCF93C82F80916C00F1
:100630000E94DF0E8C2F0E942F0F80916C00816032
:100640000E94230F0E944F0FC82F0E94250F8C2F4E
:10065000CF910895CF93DF93C82F80916C000E94B3
:10066000DF0E8C2F0E942F0F80916C0081600E9402
:10067000230F0E94420FC82FD0E0DC2FCC270E940E
:100680004F0FC82B0E94250FCE01DF91CF91089507
:10069000CF92DF92EF92FF92CF93DF9300D000D002
:1006A000CDB7DEB7898380916C000E94DF0E89810F
:1006B0000E942F0F80916C0081600E94230F0E9486
:1006C000420F90E0B0E0A0E0F82EEE24DD24CC2430
:1006D0000E94420FE82A0E94420F89830E944F0F16
:1006E000C82AD701C6012981922B89839A83AB83BB
:1006F000BC830E94250F69817A818B819C810F9038
:100700000F900F900F90DF91CF91FF90EF90DF90BF
:10071000CF900895FF920F931F93CF93DF93C82F2D
:10072000F62E072F142F80916C000E94DF0E8C2F65
:100730000E942F0F115040F0CF2DD02F89910E9491
:100740002F0FFC2E0D2FF6CFDF91CF911F910F9120
:10075000FF900C94250FEF92FF920F931F93CF936E
:10076000DF93082FEB01142F80916C000E94DF0EA5
:10077000802F0E942F0F80916C0081600E94230FB8
:10078000112379F07E018FEFE81AF80A123030F069
:100790000E94420F88831150E701F2CF0E944F0F51
:1007A000F9CFDF91CF911F910F91FF90EF900C94B3
:1007B000250FCF93C82F682F66958AE80E94C8023C
:1007C000C0936C00CF91089580916C0008950F93B1
:1007D0001F93CF93DF9300D000D000D0CDB7DEB70A
:1007E0008B018E839D8320E030E0A90169831A8309
:1007F0008B839C8369817A818B819C810E94791093
:1008000087FD2FC028EB3EEF4FEF53E469817A81DB
:100810008B819C810E94371118161CF120E030E07A
:1008200040E053E469817A818B819C810E943C1174
:1008300069837A838B839C8369817A818B819C8194
:100840000E947E1084E40E94DA0281E026960FB6B0
:10085000F894DEBF0FBECDBFDF91CF911F910F91F6
:10086000089580E0F3CFCF93DF9300D000D0CDB7D1
:10087000DEB784E40E942A039C0150E040E0298313
:100880003A834B835C83CA01B9010E94AD1020E01A
:1008900030E040E05CE369837A838B839C836981E9
:1008A0007A818B819C810E943C1169837A838B833E
:1008B0009C8369817A818B819C810F900F900F902E
:1008C0000F90DF91CF9108959C0180E521153105AE
:1008D00021F02130310531F480E70E9414038F5F4D
:1008E000880F08958FEF0895CF92DF92EF92FF92D5
:1008F0006B017C0161E080E80E94C80261E08FEF3B
:100900000E94C80260E080E00E94C8026091A200DC
:1009100081E90E94C80261E080E00E94C80260E0B4
:100920008FEF0E94C80260E080E80E94C80262E087
:10093000C114D104E104F10491F088EF0E942A036C
:10094000DC01892B31F0A70196010E9457106B0141
:100950007C01B701A60184E00E94F10264E080E01E
:10096000FF90EF90DF90CF900C94C80261E080E0A0
:100970000E94C80261E08FEF0E94C80260E080E040
:100980000E94C80260E081E90E94C80261E080E044
:100990000E94C80260E08FEF0C94C802EF92FF92B1
:1009A0000F931F93CF93DF93CDB7DEB760970FB64A
:1009B000F894DEBF0FBECDBF7C010E94730F709311
:1009C000A4006093A30083E10E941403877079F56B
:1009D0008091A6009091A700892BA9F30E94730F24
:1009E0006D877E878F87988B8091A3009091A4005C
:1009F0002D853E85281B390BC9012091A600309119
:100A0000A70028173907F8F681E08093A5000FEFBB
:100A10001FEFC80160960FB6F894DEBF0FBECDBFC2
:100A2000DF91CF911F910F91FF90EF900895E11406
:100A3000F10449F48EE10E942A038C0161E08BE00D
:100A40000E94C802E6CF4CE0BE016F5F7F4F84E199
:100A50000E94AB03898190E023E0959587952A95C4
:100A6000E1F7F70180878B819C8198278927982758
:100A7000978386838F8198859827892798279383E2
:100A8000828389859A8598278927982795838483E7
:100A90000B851C8510270127102711830083CECFDB
:100AA000CF93DF9300D000D000D0CDB7DEB78E83D8
:100AB0009D8361E080E80E94C80261E08FEF0E94A0
:100AC000C80260E080E00E94C8026091A20081E953
:100AD0000E94C80261E080E00E94C80260E08FEFDF
:100AE0000E94C80260E080E80E94C80261E080E0E5
:100AF0000E94C8020E94730F7093A4006093A30029
:100B000080E00E94140380FF2AC08091A60090918B
:100B1000A700892BA9F30E94730F69837A838B83C3
:100B20009C838091A3009091A40029813A81281B85
:100B3000390BC9012091A6003091A7002817390769
:100B4000F8F681E08093A5008FEF9FEF26960FB611
:100B5000F894DEBF0FBECDBFDF91CF9108958E8197
:100B60009D8126960FB6F894DEBF0FBECDBFDF91F4
:100B7000CF910C94CE048091A5001092A500089509
:100B80009093A7008093A60008958091A60090916D
:100B9000A7000895EF92FF920F931F93CF93DF93D7
:100BA00000D000D00F92CDB7DEB77C018B0161E0A1
:100BB00080E80E94C80261E08FEF0E94C80260E0F6
:100BC00080E00E94C80266E08FEF0E94C80283E8BE
:100BD0000E941403682F646083E80E94C80267E0E3
:100BE0008FEF0E94C80261E081E80E94C80261E0C4
:100BF00080E80E94C8026BE684E90E94C80260E0B7
:100C000083E80E94C8020E94730F7093A40060934F
:100C1000A30083E80E9414038D83811129C0809171
:100C2000A6009091A700892BA1F30E94730F6983FE
:100C30007A838B839C838091A3009091A400298167
:100C40003A81281B390BC9012091A6003091A700D9
:100C500028173907F0F68D810F900F900F900F90A5
:100C60000F90DF91CF911F910F91FF90EF9008951A
:100C700061E083E80E94C80282E90E941403982F71
:100C80009F77F7019083881F8827881FF80180834A
:100C900060E081E80E94C80266E08FEF0E94C8020F
:100CA00083E80E941403682F6B7F83E80E94C802C8
:100CB00061E08FEF0E94C80261E080E00E94C802FC
:100CC00060E08FEF0E94C80260E080E80E94C802E6
:100CD000F1E0FD83C0CFCF93DF93EC0181E00E9470
:100CE000140384FB992790F9988383FB992790F943
:100CF0009A8382FB992790F9998386FB992790F92B
:100D00009B83881F8827881F8C83DF91CF9108954C
:100D10004F925F926F927F928F929F92AF92BF920B
:100D2000EF92FF920F931F93CF93DF93CDB7DEB770
:100D30002A970FB6F894DEBF0FBECDBF8C0169872E
:100D40007A8790E080E00E94640490E0A985BA85EB
:100D50008D939C9386E40E941403E82EF12CBFEF40
:100D6000EB1AFB0AE985FA85F582E482A081B0E0FE
:100D700020E03FE24AE350E00E945710DC01CB0143
:100D80008C509E4FAF4FBF4F89839A83AB83BC83F8
:100D900038EE832E33E0932EA12CB12CBC01CD0173
:100DA000A50194010E943510D7010E9462106D8345
:100DB0007E838F83988740ED442E47E0542E612C2C
:100DC000712C69817A818B819C81A30192010E949F
:100DD00035108D819E81AF81B885820F931FA41F2E
:100DE000B51F8D839E83AF83B887BC01CD01A5015C
:100DF00094010E943510A985BA851A962D933D93CA
:100E00004D935C931D9781E50E942A03E82EF12CF7
:100E100002C0EE0CFF1C9A95E2F7BFEFEB1AFB0A3B
:100E2000E985FA85F782E682A081B0E020E03FE222
:100E30004AE350E00E945710DC01CB018C509E4FDA
:100E4000AF4FBF4F89839A83AB83BC83BC01CD0175
:100E5000A50194010E943510D7010E9457106D839F
:100E60007E838F83988769817A818B819C81A3019E
:100E700092010E9435108D819E81AF81B885820FCD
:100E8000931FA41FB51F8D839E83AF83B887BC01BA
:100E9000CD01A50194010E943510A985BA851E9641
:100EA0002D933D934D935C93519780E70E941403DB
:100EB0008F5F880F90E0E985FA859383828381E7CD
:100EC0000E942A03292F90E002C0880F991F2A95BB
:100ED000E2F70196A985BA8519969C938E93189787
:100EE000F8012381222351F016962D913C911797FA
:100EF000821B930B19969C938E931897E985FA851C
:100F0000A281B0E020E03FE24AE350E00E945710A7
:100F1000DC01CB018C509E4FAF4FBF4F89839A832A
:100F2000AB83BC8328EE822E23E0922EA12CB12C21
:100F3000BC01CD01A50194010E943510E985FA8517
:100F4000A085B1850E9457106D837E838F8398871B
:100F500069817A818B819C8120ED37E040E050E00F
:100F60000E9435108D819E81AF81B885820F931FBD
:100F7000A41FB51FBC01CD01A50194010E9435102D
:100F8000A985BA8552962D933D934D935C935597C1
:100F90002A960FB6F894DEBF0FBECDBFDF91CF917A
:100FA0001F910F91FF90EF90BF90AF909F908F9007
:100FB0007F906F905F904F9008958F929F92AF9225
:100FC000BF92CF92DF92EF92FF921F93CF93DF9366
:100FD000CDB7DEB7A3970FB6F894DEBF0FBECDBF77
:100FE0004B015C0120E282162EE49206A104B104BA
:100FF00008F4CCC0CE0147960E946B06BE016F5F1D
:101000007F4FCE0147960E9488068F89882309F476
:10101000ABC08B859C85AD85BE858A5C944FAF4FF8
:10102000BF4F298D222309F4A4C04B855C856D85B3
:101030007E854E545D4F6F4F7F4F440F551F661F87
:10104000771F840F951FA61FB71F1A8D112361F0FC
:101050004F85588969897A894C565D4F6F4F7F4F0C
:10106000840F951FA61FB71F2B8D222309F469C07B
:101070006C017D0126E2C20E22E0D21EE11CF11CB1
:101080008C149D04AE04BF0408F480C0AB81B0E0B2
:1010900020E03FE24AE350E00E945710DC01CB0120
:1010A0008C509E4FAF4FBF4F8C8F9D8FAE8FBF8F99
:1010B000A50194012C193D094E095F09A8EEB3E082
:1010C0000E94571068A379A38AA39BA36C8D7D8D82
:1010D0008E8D9F8D20ED37E040E050E00E9435106E
:1010E00088A199A1AAA1BBA1820F931FA41FB51F1C
:1010F00088A399A3AAA3BBA36C8D7D8D8E8D9F8D94
:1011000028EE33E040E050E00E94351068A179A15C
:101110008AA19BA10E943510C901112321F08F8162
:101120009885820F931F0E94AA02BC0181E70E944A
:10113000DA0280929E0090929F00A092A000B0924E
:10114000A10081E0A3960FB6F894DEBF0FBECDBF1D
:10115000DF91CF911F91FF90EF90DF90CF90BF90E4
:10116000AF909F908F90089588EE98E0A0E0B0E057
:1011700058CF288D222309F468CF4B855C856D8577
:101180007E854C565D4F6F4F7F4F5BCF80E0DACF4F
:101190000F931F93CF93DF93CDB7DEB76B970FB647
:1011A000F894DEBF0FBECDBFCE0147960E946B06FE
:1011B000BE016F5F7F4FCE0147960E9488068F89E0
:1011C000882309F44DC06B857C858D859E856C5781
:1011D000724F8F4F9F4F298D222309F446C00B85F4
:1011E0001C852D853E850E541D4F2F4F3F4F000F00
:1011F000111F221F331F600F711F821F931F2A8D23
:10120000222361F00F85188929893A890C561D4FD0
:101210002F4F3F4F600F711F821F931F2B8D222373
:1012200061F00B891C892D893E890A5D1D4F2F4F66
:101230003F4F600F711F821F931F60939E0070933A
:101240009F008093A0009093A1006B960FB6F89436
:10125000DEBF0FBECDBFDF91CF911F910F910895DB
:1012600066E37BE080E090E0B6CF288D222339F260
:101270000B851C852D853E850C561D4F2F4F3F4FEE
:10128000BACFCF93DF9300D000D00F92CDB7DEB7A7
:10129000682F616080E00E94C8020E94730F709303
:1012A000A4006093A30083E10E94140387708D83E0
:1012B000811125C08091A6009091A700892B99F3F8
:1012C0000E94730F69837A838B839C838091A30030
:1012D0009091A40029813A81281B390BC9012091E2
:1012E000A6003091A70028173907E8F68D810F90E6
:1012F0000F900F900F900F90DF91CF91089561E0C4
:101300008BE00E94C80260E080E00E94C80231E0E9
:101310003D83ECCF0F931F93CF93DF93CDB7DEB711
:101320002C970FB6F894DEBF0FBECDBF882341F0D7
:1013300089E80E941403682F616089E80E94C8024E
:1013400060E088E80E94C80261E080E80E94C8026C
:1013500061E08FEF0E94C80260E080E00E94C80256
:1013600081E90E9414038093A20061E080E00E9462
:10137000C80260E08FEF0E94C80260E080E80E942F
:10138000C80280E60E941403682F626180E60E9412
:10139000C80260E270E084E40E94DA026FEF81E04C
:1013A0000E94C802BE01695F7F4FCE0108960E946D
:1013B000CA0581110CC080E02C960FB6F894DEBFF0
:1013C0000FBECDBFDF91CF911F910F91089546E0E1
:1013D000BE016F5F7F4F80EB0E94AB0361E08FEF38
:1013E0000E94C80260E08FE40E94C8026CE28EE4B2
:1013F0000E94C80260E08FEF0E94C80264EB86EB97
:101400000E94C8029F8191119CE0B88580E0A0E015
:1014100001E010E0482F46954695469550E021E0C2
:1014200030E02C0F3D1F240F351FF9012081682F5C
:101430006770891710F0BA139FC1E1E0F0E0EC0F7C
:10144000FD1F4E0F5F1FF80102C0EE0FFF1F6A95D0
:10145000E2F7BF0160952623FA0120838F5F803376
:10146000C9F646E0BE016F5F7F4F80EB0E948A03A2
:1014700061E08FEF0E94C80260E080E00E94C80235
:1014800060E08FEF0E94C80260E089E00E94C8021D
:1014900060E080E10E94C80260E081E10E94C80231
:1014A00061E084E20E94C8026FEF85E20E94C802F8
:1014B00060E085E70E94C80261E08FEF0E94C802E9
:1014C0006CE28EE40E94C80260E088E40E94C802D8
:1014D00060E280E30E94C80260E08FEF0E94C802D1
:1014E00069E080E30E94C80260E084E50E94C802CF
:1014F00064E081E30E94C80263E082E30E94C802C4
:1015000063E880E40E94C80265E286E40E94C802A3
:1015100060E080E60E94C80260E087E20E94C802A4
:1015200066E080E50E94C80260E081E50E94C80292
:1015300066E982E50E94C80268E086E50E94C8026A
:1015400060E387E50E94C80260E081E60E94C8026D
:1015500060E082E60E94C80260E084E60E94C80261
:1015600060E085E60E94C80260EA86E60E94C80242
:1015700061E08FEF0E94C80262E382E20E94C8022B
:1015800064E187E40E94C8026FEF89E40E94C80208
:1015900060E08AE40E94C80260E08FEF0E94C80207
:1015A0006AE08AE70E94C80260E08BE70E94C802F6
:1015B00061E288E70E94C80261E08FEF0E94C802E2
:1015C00064E383E20E94C80260E082E40E94C802F1
:1015D0006FEF84E40E94C80266E285E40E94C802BC
:1015E00065E086E40E94C80260E480E40E94C802CC
:1015F00066E08EE00E94C8026AE180E20E94C802B2
:1016000060E483E40E94C80260E08FEF0E94C80299
:1016100063E084E30E94C80264E485E30E94C80298
:1016200061E08FEF0E94C80264E081E30E94C8027B
:1016300069E08BE40E94C80265E08CE40E94C80265
:1016400064E08DE40E94C80260E08FEF0E94C8024F
:1016500060E084E40E94C80260E285E40E94C8025F
:1016600068E087E40E94C80268E288E40E94C80239
:1016700060E087E60E94C80264E080E70E94C8023A
:1016800061E081E70E94C8026EEF82E70E94C80213
:1016900060E086E70E94C80260E087E70E94C80217
:1016A00061E08FEF0E94C80261E08DE00E94C802F5
:1016B00060E08FEF0E94C80261E080E80E94C802EB
:1016C00068EF81E00E94C80261E08FEF0E94C802CB
:1016D00061E08EE80E94C80261E080E00E94C802DA
:1016E00060E08FEF0E94C80260E080E80E94C802BC
:1016F00064E08AE00E94C80284E80E941403682F14
:101700006F7E84E80E94C80261E08BE00E94C802FC
:101710000E94C80860939E0070939F008093A00071
:101720009093A10068EE81E00E94C80280919E0023
:1017300090919F00A091A000B091A100BC01CD01AB
:101740000E94DD0761E081E00E94C80280E40E94FF
:101750004109882309F42FCE62E081E00E94C8028B
:1017600080E00E944109882309F425CE68EE81E0DB
:101770000E94C80281E020CE30E002C03595279556
:101780006A95E2F720FF6ACEAF5F68CE8F929F9294
:10179000AF92BF92CF92DF92EF92FF920F931F937F
:1017A000CF93DF93CDB7DEB7A3970FB6F894DEBF24
:1017B0000FBECDBF7C01162F062F06950150CE011E
:1017C00047960E946B06BE016F5F7F4FCE01479622
:1017D0000E948806E114F10409F0B3C0103109F445
:1017E000AEC040F41C3009F4A8C060E31E3029F0FC
:1017F00080E090C060E51231D9F787E50E94C80209
:1018000068E086E50E94C802602F80E50E94C80259
:10181000A12FB0E020E03FE24AE350E00E945710E1
:10182000DC01CB018C509E4FAF4FBF4F8C8F9D8FF3
:10183000AE8FBF8FBC01CD0128EE33E040E050E019
:101840000E94351049015A016C8D7D8D8E8D9F8DC2
:1018500020ED37E040E050E00E94351069017A0148
:101860002F85388949895A89A8EEB3E00E9457101C
:10187000DC01CB018C0D9D1DAE1DBF1D8C8F9D8F7E
:10188000AE8FBF8FBC01CD01A50194010E94351020
:10189000C9010E94AA02BC0181E50E94DA022B85DF
:1018A0003C854D855E85A8EEB3E00E945710DC01B3
:1018B000CB018C0D9D1DAE1DBF1DBC01CD01A50131
:1018C00094010E943510213091E0390710F020E09A
:1018D00031E06FEF620F86E40E94C80280919E00A3
:1018E00090919F00A091A000B091A100BC01CD01FA
:1018F0000E94DD0781E00E941403182F62E081E05E
:101900000E94C80280E00E944109612F81E00E948C
:10191000C80281E0A3960FB6F894DEBF0FBECDBF1C
:10192000DF91CF911F910F91FF90EF90DF90CF90BB
:10193000BF90AF909F908F90089568E15ECF60E474
:101940005CCFEA94EF2809F053CF1C3009F4A0C013
:10195000D8F4183051F11A3009F04ACF68E288E41F
:101960000E94C80268E087E40E94C80263E082E344
:101970000E94C80269E080E30E94C80261E08FEF24
:101980000E94C80260E226C01E3009F031CF68E430
:1019900088E40E94C80268E087E40E94C80263E00D
:1019A00082E30E94C80267E0E6CF60E188E40E941B
:1019B000C80268E087E40E94C80262E082E30E94F5
:1019C000C8026CE080E30E94C80261E08FEF0E94D1
:1019D000C80260E380E30E94C80260E08FEF0E94CB
:1019E000C802602F80E70E94C802A12FB0E020E06B
:1019F0003FE24AE350E00E945710DC01CB018C50DB
:101A00009E4FAF4FBF4F8C8F9D8FAE8FBF8F2B8957
:101A10003C894D895E89A8EEB3E00E94571068A307
:101A200079A38AA39BA36C8D7D8D8E8D9F8D20EDD8
:101A300037E040E050E00E94351088A199A1AAA1AA
:101A4000BBA1820F931FA41FB51F88A399A3AAA3AC
:101A5000BBA36C8D7D8D8E8D9F8D28EE33E040E095
:101A600050E00E94351068A179A18AA19BA10E9433
:101A70003510C9016A8D662321F08F819885820F08
:101A8000931F0E94AA02BC0181E70E94DA0226CFBE
:101A900068E388E40E94C80268E087E40E94C80204
:101AA00063E082E30E94C80268E065CF8AB1886182
:101AB0008AB910BC88E089B9599A08955D9BFECF18
:101AC0008CB908959FE9980F963010F487550895C2
:101AD00080538A3008F08FEF08951F93CF93DF93E0
:101AE000EC01FE011491112351F0812F0E945E0D33
:101AF0001A3019F48DE00E945E0D2196F2CFDF912D
:101B0000CF911F9108958F929F92AF92BF92EF92C3
:101B1000FF920F931F93CF93DF93CDB7DEB72E972E
:101B20000FB6F894DEBF0FBECDBF6B877C878D8765
:101B30009E878E010F5F1F4F78018AE0882E912CBF
:101B4000A12CB12C8B859C85AD85BE85892B8A2BDC
:101B50008B2B19F4E016F10681F46B857C858D855D
:101B60009E85A50194010E943510D8016D938D01C9
:101B70002B873C874D875E87E5CFF80182918F01E7
:101B8000805D0E945E0DE016F106B9F72E960FB645
:101B9000F894DEBF0FBECDBFDF91CF911F910F91A3
:101BA000FF90EF90BF90AF909F908F9008958F928D
:101BB0009F92AF92BF92CF92DF92EF92FF92CF931C
:101BC000DF9300D000D000D0CDB7DEB76B017C0131
:101BD000842F90E09E838D8388248394912C042EFF
:101BE00002C0880C991C0A94E2F791E0891A9108C6
:101BF000092C000CAA08BB08D701CB0104C0B6957C
:101C0000A795979587954A95D2F7BC01CD010E947B
:101C1000830D8EE20E945E0DA50194012C213D21D1
:101C20004E215F212115310541055105F1F0AAE052
:101C3000B0E00E94571069837A838B839C83DC0118
:101C4000CB010D8004C0B695A795979587950A940A
:101C5000D2F7805D0E945E0D29813A814B815C81C3
:101C6000282139214A215B21DDCF26960FB6F89431
:101C7000DEBF0FBECDBFDF91CF91FF90EF90DF9021
:101C8000CF90BF90AF909F908F900895CF92DF92AA
:101C9000EF92FF92CF93DF936B017C01842F8150F1
:101CA000990BEC01CC0FDD1FCC0FDD1FD7FD16C04B
:101CB000D701C6010C2E04C0B695A79597958795B8
:101CC0000A94D2F78F709927AA27BB2783599F4F71
:101CD000FC0180810E945E0D2497E8CFDF91CF91B7
:101CE000FF90EF90DF90CF900895EF92FF920F93C7
:101CF0001F93CF93DF93CDB7DEB72A970FB6F89433
:101D0000DEBF0FBECDBF8C017B0119821A821B8200
:101D10001C8289819A818E159F0508F03FC021E1C0
:101D2000E216F10498F08F709927892B79F48DE5EC
:101D300090E00E946D0D44E069817A818B819C81E5
:101D40000E94460E8AE590E00E946D0D09871A8771
:101D5000A985BA858D91BA87A987282F30E050E0F0
:101D600040E02D833E834F83588742E06D817E8122
:101D70008F8198850E94460E88E590E00E946D0D47
:101D800089819A81AB81BC810196A11DB11D898396
:101D90009A83AB83BC8309851A85BBCF2A960FB67D
:101DA000F894DEBF0FBECDBFDF91CF911F910F9191
:101DB000FF90EF90089511B882E080B9089594EAF9
:101DC00096BF2FEF3FEF2150310911F481E00895C4
:101DD00006B607FEF8CF91B1987F983011F0903198
:101DE000A9F783B984E886BF8FEF9FEF019771F35E
:101DF00006B607FEFBCF91B1987F983119F081E0CC
:101E0000903411F480E00895089524EA34E844E918
:101E100026BF06B607FEFDCF91B1987F983011F02E
:101E20009031B1F783B936BF06B607FEFDCF91B149
:101E3000987F903211F0983529F446BF06B604FC1D
:101E4000FDCFE6CF08950C94DF0E84E986BF8FEFB7
:101E50009FEF019719F006B604FCFBCF089583B9F4
:101E600084E886BF8FEF9FEF019751F006B607FE1B
:101E7000FBCF91B1987F81E0983209F480E008951A
:101E800081E0089584EC86BF8FEF9FEF019729F0E2
:101E900006B607FEFBCF83B1089580E0089584E87D
:101EA00086BF8FEF9FEF019729F006B607FEFBCFA5
:101EB00083B1089580E00895CF93C0E08C2F880F00
:101EC0000E94DF0E0E94250FCF5FC038B9F7CF9177
:101ED000089588E083BF83B7856083BF8AE78CBF9E
:101EE00082E089BF0895CF93DF9300D000D0CDB7B3
:101EF000DEB78FB7F8942091A8003091A9004091E7
:101F0000AA005091AB0029833A834B835C838FBF37
:101F100069817A818B819C810F900F900F900F9037
:101F2000DF91CF9108951F921FB61F9211248F93B6
:101F30009F93AF93BF938091A8009091A900A09127
:101F4000AA00B091AB000F96A11DB11D8093A8000F
:101F50009093A900A093AA00B093AB008091AC002D
:101F60009DE5980F9D3750F49093AC00BF91AF91D1
:101F70009F918F911F901FBE1F9018958052809344
:101F8000AC008091A8009091A900A091AA00B09106
:101F9000AB000196A11DB11D8093A8009093A900EC
:101FA000A093AA00B093AB00E1CF00D000D00F9275
:101FB000CDB7DEB70E944B028BE090E09093990082
:101FC0008093980026E02D8380919800909199004D
:101FD0008B35910598F580919800909199000B9719
:101FE00010F436E03D8380919800909199005D81D6
:101FF000850F911D57FD9A959093990080939800B5
:102000000E94D70080919800909199009C0150E027
:1020100040E029833A834B835C83CA01B9010E9463
:10202000830D80E20E945E0D3FEF49E658E131509A
:1020300040405040E1F700C00000C6CF4AEF4D835A
:10204000D2CFAA1BBB1B51E107C0AA1FBB1FA617FB
:10205000B70710F0A61BB70B881F991F5A95A9F751
:1020600080959095BC01CD010895A1E21A2EAA1B7E
:10207000BB1BFD010DC0AA1FBB1FEE1FFF1FA21738
:10208000B307E407F50720F0A21BB30BE40BF50B35
:10209000661F771F881F991F1A9469F760957095BE
:1020A000809590959B01AC01BD01CF0108950E94E0
:1020B0006A10A59F900DB49F900DA49F800D911D57
:1020C00011240895B7FF0C9457100E945710821BDB
:1020D000930B0895A29FB001B39FC001A39F700D01
:1020E000811D1124911DB29F700D811D1124911D20
:1020F00008950E94EA1008F481E008950E941611E4
:1021000088F09F5798F0B92F9927B751B0F0E1F0B8
:10211000660F771F881F991F1AF0BA95C9F714C068
:10212000B13091F00E943011B1E008950C9430115B
:10213000672F782F8827B85F39F0B93FCCF38695A1
:1021400077956795B395D9F73EF4909580957095FE
:1021500061957F4F8F4F9F4F0895E89409C097FB7B
:102160003EF490958095709561957F4F8F4F9F4F6E
:102170009923A9F0F92F96E9BB279395F6958795B2
:1021800077956795B795F111F8CFFAF4BB0F11F475
:1021900060FF1BC06F5F7F4F8F4F9F4F16C088231C
:1021A00011F096E911C0772321F09EE8872F762F52
:1021B00005C0662371F096E8862F70E060E02AF093
:1021C0009A95660F771F881FDAF7880F969587957F
:1021D00097F90895990F0008550FAA0BE0E8FEEF54
:1021E00016161706E807F907C0F012161306E407DB
:1021F000F50798F0621B730B840B950B39F40A26D4
:1022000061F0232B242B252B21F408950A2609F4B1
:10221000A140A6958FEF811D811D089557FD90580F
:10222000440F551F59F05F3F71F04795880F97FB9A
:10223000991F61F09F3F79F0879508951216130654
:102240001406551FF2CF4695F1DF08C01616170683
:102250001806991FF1CF86957105610508940895B8
:10226000E894BB2766277727CB0197F908950E944A
:10227000EA1008F48FEF08950E944F110C94C011DA
:102280000E94B21138F00E94B91120F0952311F08C
:102290000C94A9110C94AF1111240C9431110E94CB
:1022A0000E1170F3959FC1F3950F50E0551F629F7B
:1022B000F001729FBB27F00DB11D639FAA27F00D9F
:1022C000B11DAA1F649F6627B00DA11D661F829FC6
:1022D0002227B00DA11D621F739FB00DA11D621FAB
:1022E000839FA00D611D221F749F3327A00D611DC8
:1022F000231F849F600D211D822F762F6A2F1124AA
:102300009F5750409AF0F1F088234AF0EE0FFF1FDC
:10231000BB1F661F771F881F91505040A9F79E3F33
:10232000510580F00C94A9110C9431115F3FE4F336
:10233000983ED4F3869577956795B795F795E79589
:102340009F5FC1F7FE2B880F911D9695879597F992
:10235000089597F99F6780E870E060E008959FEF27
:1023600080EC089500240A9416161706180609062C
:10237000089500240A9412161306140605060895FB
:10238000092E0394000C11F4882352F0BB0F40F483
:10239000BF2B11F460FF04C06F5F7F4F8F4F9F4FC3
:0623A0000895F894FFCF40
:1023A60001143F065B4F666D7D077F6F52303132F9
:0E23B60033343536373839414243444546000A
:00000001FF
