:100000000C9432000C944F000C944F000C944F0051
:100010000C944F000C944F000C946E020C944F0003
:100020000C944F000C944F000C944F000C944F0014
:100030000C944F000C944F000C944F000C944F0004
:100040000C944F000C944F000C944F000C947B0FB9
:100050000C944F00636D200020003A20000A2020FD
:100060002020000011241FBECFE5D4E0DEBFCDBFAD
:1000700010E0A0E6B0E0E6E7F3E202C005900D92E2
:10008000AE37B107D9F720E0AEE7B0E001C01D926E
:10009000AB3AB207E1F70E94BD0F0C94B9110C9472
:1000A0000000CF93DF9300D000D0CDB7DEB7262F6E
:1000B0008536910510F084E690E06AE070E00E94D9
:1000C0000910CB0101966BE070E00E94091040E03E
:1000D00050E0BA01815030F0440F551F661F771F62
:1000E0004160F8CFDB01CA0104C0880F991FAA1F25
:1000F000BB1F2A95D2F7BC01CD010F900F900F9036
:100100000F90DF91CF91089530E020E090E0682FCC
:1001100070E0AB01022E02C0559547950A94E2F7B4
:100120004170990F942B2F5F3F4F2830310589F78D
:10013000892F0895CF92DF92EF92FF920F931F9332
:10014000CF93DF9300D000D0CDB7DEB71A821982EB
:10015000042F10E02AE0C22ED12CE12CF12C2981B1
:100160003A81201731076CF4A70196010E941D10F7
:10017000B901CA0129813A812F5F3F4F3A83298310
:10018000EECF2AE030E040E050E00E941D1069838D
:100190007A838B839C83E981FA81EE59FF4F8081BA
:1001A0000F900F900F900F90DF91CF911F910F91B3
:1001B000FF90EF90DF90CF900895CF93DF9300D022
:1001C00000D0CDB7DEB7809196009091970060E0A7
:1001D0000E9451006093920070939300809394006A
:1001E00090939500660F660F65BB80919200909189
:1001F0009300A0919400B091950026E0B695A79544
:10020000979587952A95D1F7AC01BD01440F551FED
:10021000661F771F4C7F517066277727817099275B
:10022000AA27BB27842B82BB8091960090919700D0
:10023000843608F083E6282F30E050E040E0298340
:100240003A834B835C8341E069817A818B819C8115
:100250000E949A008BBB40E069817A818B819C81EE
:100260000E949A0088BB0F900F900F900F90DF9123
:10027000CF910895CF93DF93CDB7DEB72D970FB60B
:10028000F894DEBF0FBECDBFCE0101960E943805A7
:100290006AE070E00E9409107093990060939800E2
:1002A00080919800909199009C0150E040E02A874D
:1002B0003B874C875D87CA01B9010E946B0D84E5BD
:1002C00090E00E94550D80919800909199002D9694
:1002D0000FB6F894DEBF0FBECDBFDF91CF9108956A
:1002E0009B01FC0170E060E090E080E06217730722
:1002F00039F041915191840F951F6F5F7F4FF6CF79
:100300000E940910CB0108952F923F924F925F9265
:100310006F927F928F929F92AF92BF92CF92DF9215
:10032000EF92FF920F931F93CF93DF9300D000D0F3
:1003300000D0CDB7DEB78EE790E09A838983A9819C
:10034000BA81A259B04071F00E943A019C018160CB
:100350008F3F9F41A1F3A981BA812D933D93BA8329
:10036000A983EDCF6AE070E08EE790E00E94700113
:100370002C01712C612C0EE710E0F12CE12CEFEF39
:10038000EE1AFE0A1E830D838D819E81A0E08039C6
:100390009A0709F440C0F801C080D180DC011296B0
:1003A000AD90BC90D301C2018C199D09A109B1097E
:1003B00089839A83AB83BC83BC01CD010E949510D5
:1003C0001B014C01D301C2018A199B09A109B10982
:1003D00089839A83AB83BC83BC01CD010E949510B5
:1003E0009B01AC0129823A828B829C8269817A814D
:1003F0008B819C810E941F1118163CF4D801AD928C
:10040000BC92ED81FE81D382C2828D819E81029653
:100410009E838D83B9CF0E5F1F4FBAE0EB16F104B8
:1004200009F0ADCF65E070E08EE790E026960FB65C
:10043000F894DEBF0FBECDBFDF91CF911F910F911A
:10044000FF90EF90DF90CF90BF90AF909F908F90F4
:100450007F906F905F904F903F902F900C94700121
:1004600083BD089588E08FBD8EB583608EBD82EE1A
:1004700094E09BBD8ABD80E189BF08958F9A88E68C
:1004800085BD85B5816085BD13BC08950E943E0D74
:1004900054988FEF84BB81BB8ABB87BB0E94C30E7D
:1004A0000E94510F0E943E0278940895909161003D
:1004B00080916100953610F4843128F480916000B9
:1004C0008195809360008091600090916100890F18
:1004D000809361008091610083BD08951F920F9207
:1004E0000FB60F9211242F933F934F935F936F9307
:1004F0007F938F939F93AF93BF93EF93FF930E944C
:100500005602FF91EF91BF91AF919F918F917F9193
:100510006F915F914F913F912F910F900FBE0F9070
:100520001F9018950F931F930097B9F00197B0E0B3
:10053000A0E050E040E08C019D010027012B022B40
:10054000032B39F0B695A795979587954F5F5F4F29
:10055000F2CF342F2227822B932B1F910F910895D6
:10056000CF93DF93D82FC62F80916C000E94C70EC7
:100570008D2F0E94170F8C2F0E94170FDF91CF91A4
:100580000C940D0F1F93CF93DF93182FEB018091E5
:100590006C000E94C70E812F0E94170F8D2F0E94A2
:1005A000170F8C2F0E94170FDF91CF911F910C9482
:1005B0000D0FFF920F931F93CF93DF93F82EEA0155
:1005C000162F072F80916C000E94C70E8F2D0E945E
:1005D000170F802F0E94170F812F0E94170F8D2F4A
:1005E0000E94170F8C2F0E94170FDF91CF911F9140
:1005F0000F91FF900C940D0FCF93C82F80916C003A
:100600000E94C70E8C2F0E94170F80916C00816092
:100610000E940B0F0E94370FC82F0E940D0F8C2FC6
:10062000CF910895CF93DF93C82F80916C000E94E3
:10063000C70E8C2F0E94170F80916C0081600E9462
:100640000B0F0E942A0FC82FD0E0DC2FCC270E946E
:10065000370FC82B0E940D0FCE01DF91CF91089567
:10066000CF92DF92EF92FF92CF93DF9300D000D032
:10067000CDB7DEB7898380916C000E94C70E898157
:100680000E94170F80916C0081600E940B0F0E94E6
:100690002A0F90E0B0E0A0E0F82EEE24DD24CC2478
:1006A0000E942A0FE82A0E942A0F89830E94370F8E
:1006B000C82AD701C6012981922B89839A83AB83EB
:1006C000BC830E940D0F69817A818B819C810F9080
:1006D0000F900F900F90DF91CF91FF90EF90DF90F0
:1006E000CF900895FF920F931F93CF93DF93C82F5E
:1006F000F62E072F142F80916C000E94C70E8C2FAE
:100700000E94170F115040F0CF2DD02F89910E94D9
:10071000170FFC2E0D2FF6CFDF91CF911F910F9168
:10072000FF900C940D0FEF92FF920F931F93CF93B6
:10073000DF93082FEB01142F80916C000E94C70EED
:10074000802F0E94170F80916C0081600E940B0F18
:10075000112379F07E018FEFE81AF80A123030F099
:100760000E942A0F88831150E701F2CF0E94370FB1
:10077000F9CFDF91CF911F910F91FF90EF900C94E3
:100780000D0FCF93C82F682F66958AE80E94B0029C
:10079000C0936C00CF91089580916C0008950F93E1
:1007A0001F93CF93DF9300D000D000D0CDB7DEB73A
:1007B0008B018E839D8320E030E0A90169831A8339
:1007C0008B839C8369817A818B819C810E946110DB
:1007D00087FD2FC028EB3EEF4FEF53E469817A810C
:1007E0008B819C810E941F1118161CF120E030E0C3
:1007F00040E053E469817A818B819C810E942411BD
:1008000069837A838B839C8369817A818B819C81C4
:100810000E94661084E40E94C20281E026960FB610
:10082000F894DEBF0FBECDBFDF91CF911F910F9126
:10083000089580E0F3CFCF93DF9300D000D0CDB701
:10084000DEB784E40E9412039C0150E040E029835B
:100850003A834B835C83CA01B9010E94951020E062
:1008600030E040E05CE369837A838B839C83698119
:100870007A818B819C810E94241169837A838B8386
:100880009C8369817A818B819C810F900F900F905E
:100890000F90DF91CF9108959C0180E521153105DE
:1008A00021F02130310531F480E70E94FC028F5F96
:1008B000880F08958FEF0895CF92DF92EF92FF9205
:1008C0006B017C0161E080E80E94B00261E08FEF83
:1008D0000E94B00260E080E00E94B0026091A0003F
:1008E00081E90E94B00261E080E00E94B00260E015
:1008F0008FEF0E94B00260E080E80E94B00262E0E8
:10090000C114D104E104F10491F088EF0E941203B4
:10091000DC01892B31F0A70196010E943F106B0189
:100920007C01B701A60184E00E94D90264E080E066
:10093000FF90EF90DF90CF900C94B00261E080E0E8
:100940000E94B00261E08FEF0E94B00260E080E0A0
:100950000E94B00260E081E90E94B00261E080E0A4
:100960000E94B00260E08FEF0C94B002EF92FF9211
:100970000F931F93CF93DF93CDB7DEB760970FB67A
:10098000F894DEBF0FBECDBF7C010E945B0F709359
:10099000A2006093A10083E10E94FC02877079F5B8
:1009A0008091A4009091A500892BA9F30E945B0F70
:1009B0006D877E878F87988B8091A1009091A20090
:1009C0002D853E85281B390BC9012091A40030914B
:1009D000A50028173907F8F681E08093A3000FEFF0
:1009E0001FEFC80160960FB6F894DEBF0FBECDBFF3
:1009F000DF91CF911F910F91FF90EF900895E11437
:100A0000F10449F48EE10E9412038C0161E08BE055
:100A10000E94B002E6CF4CE0BE016F5F7F4F84E1E1
:100A20000E949303898190E023E0959587952A950C
:100A3000E1F7F70180878B819C8198278927982788
:100A4000978386838F819885982789279827938312
:100A5000828389859A859827892798279583848317
:100A60000B851C8510270127102711830083CECF0B
:100A7000CF93DF9300D000D000D0CDB7DEB78E8308
:100A80009D8361E080E80E94B00261E08FEF0E94E8
:100A9000B00260E080E00E94B0026091A00081E9B5
:100AA0000E94B00261E080E00E94B00260E08FEF3F
:100AB0000E94B00260E080E80E94B00261E080E045
:100AC0000E94B0020E945B0F7093A2006093A1008D
:100AD00080E00E94FC0280FF2AC08091A4009091D7
:100AE000A500892BA9F30E945B0F69837A838B830E
:100AF0009C838091A1009091A20029813A81281BBA
:100B0000390BC9012091A4003091A500281739079D
:100B1000F8F681E08093A3008FEF9FEF26960FB643
:100B2000F894DEBF0FBECDBFDF91CF9108958E81C7
:100B30009D8126960FB6F894DEBF0FBECDBFDF9124
:100B4000CF910C94B6048091A3001092A300089555
:100B50009093A5008093A40008958091A4009091A3
:100B6000A5000895EF92FF920F931F93CF93DF9309
:100B700000D000D00F92CDB7DEB77C018B0161E0D1
:100B800080E80E94B00261E08FEF0E94B00260E056
:100B900080E00E94B00266E08FEF0E94B00283E81E
:100BA0000E94FC02682F646083E80E94B00267E044
:100BB0008FEF0E94B00261E081E80E94B00261E024
:100BC00080E80E94B0026BE684E90E94B00260E017
:100BD00083E80E94B0020E945B0F7093A2006093B2
:100BE000A10083E80E94FC028D83811129C08091BD
:100BF000A4009091A500892BA1F30E945B0F69834B
:100C00007A838B839C838091A1009091A20029819B
:100C10003A81281B390BC9012091A4003091A5000D
:100C200028173907F0F68D810F900F900F900F90D5
:100C30000F90DF91CF911F910F91FF90EF9008954A
:100C400061E083E80E94B00282E90E94FC02982FD2
:100C50009F77F7019083881F8827881FF80180837A
:100C600060E081E80E94B00266E08FEF0E94B0026F
:100C700083E80E94FC02682F6B7F83E80E94B00229
:100C800061E08FEF0E94B00261E080E00E94B0025C
:100C900060E08FEF0E94B00260E080E80E94B00246
:100CA000F1E0FD83C0CFCF93DF93EC0181E00E94A0
:100CB000FC0284FB992790F9988383FB992790F98C
:100CC0009A8382FB992790F9998386FB992790F95B
:100CD0009B83881F8827881F8C83DF91CF9108957D
:100CE0004F925F926F927F928F929F92AF92BF923C
:100CF000EF92FF920F931F93CF93DF93CDB7DEB7A1
:100D00002A970FB6F894DEBF0FBECDBF8C0169875E
:100D10007A8790E080E00E944C0490E0A985BA8533
:100D20008D939C9386E40E94FC02E82EF12CBFEF89
:100D3000EB1AFB0AE985FA85F582E482A081B0E02E
:100D400020E03FE24AE350E00E943F10DC01CB018B
:100D50008C509E4FAF4FBF4F89839A83AB83BC8328
:100D600038EE832E33E0932EA12CB12CBC01CD01A3
:100D7000A50194010E941D10D7010E944A106D83A5
:100D80007E838F83988740ED442E47E0542E612C5C
:100D9000712C69817A818B819C81A30192010E94CF
:100DA0001D108D819E81AF81B885820F931FA41F76
:100DB000B51F8D839E83AF83B887BC01CD01A5018C
:100DC00094010E941D10A985BA851A962D933D9312
:100DD0004D935C931D9781E50E941203E82EF12C40
:100DE00002C0EE0CFF1C9A95E2F7BFEFEB1AFB0A6C
:100DF000E985FA85F782E682A081B0E020E03FE253
:100E00004AE350E00E943F10DC01CB018C509E4F22
:100E1000AF4FBF4F89839A83AB83BC83BC01CD01A5
:100E2000A50194010E941D10D7010E943F106D83FF
:100E30007E838F83988769817A818B819C81A301CE
:100E400092010E941D108D819E81AF81B885820F15
:100E5000931FA41FB51F8D839E83AF83B887BC01EA
:100E6000CD01A50194010E941D10A985BA851E9689
:100E70002D933D934D935C93519780E70E94FC0224
:100E80008F5F880F90E0E985FA859383828381E7FD
:100E90000E941203292F90E002C0880F991F2A9503
:100EA000E2F70196A985BA8519969C938E931897B7
:100EB000F8012381222351F016962D913C9117972A
:100EC000821B930B19969C938E931897E985FA854C
:100ED000A281B0E020E03FE24AE350E00E943F10F0
:100EE000DC01CB018C509E4FAF4FBF4F89839A835B
:100EF000AB83BC8328EE822E23E0922EA12CB12C52
:100F0000BC01CD01A50194010E941D10E985FA855F
:100F1000A085B1850E943F106D837E838F83988763
:100F200069817A818B819C8120ED37E040E050E03F
:100F30000E941D108D819E81AF81B885820F931F05
:100F4000A41FB51FBC01CD01A50194010E941D1075
:100F5000A985BA8552962D933D934D935C935597F1
:100F60002A960FB6F894DEBF0FBECDBFDF91CF91AA
:100F70001F910F91FF90EF90BF90AF909F908F9037
:100F80007F906F905F904F9008958F929F92AF9255
:100F9000BF92CF92DF92EF92FF921F93CF93DF9396
:100FA000CDB7DEB7A3970FB6F894DEBF0FBECDBFA7
:100FB0004B015C0120E282162EE49206A104B104EA
:100FC00008F4CCC0CE0147960E945306BE016F5F65
:100FD0007F4FCE0147960E9470068F89882309F4BF
:100FE000ABC08B859C85AD85BE858A5C944FAF4F29
:100FF000BF4F298D222309F4A4C04B855C856D85E4
:101000007E854E545D4F6F4F7F4F440F551F661FB7
:10101000771F840F951FA61FB71F1A8D112361F02C
:101020004F85588969897A894C565D4F6F4F7F4F3C
:10103000840F951FA61FB71F2B8D222309F469C0AB
:101040006C017D0126E2C20E22E0D21EE11CF11CE1
:101050008C149D04AE04BF0408F480C0AB81B0E0E2
:1010600020E03FE24AE350E00E943F10DC01CB0168
:101070008C509E4FAF4FBF4F8C8F9D8FAE8FBF8FC9
:10108000A50194012C193D094E095F09A8EEB3E0B2
:101090000E943F1068A379A38AA39BA36C8D7D8DCA
:1010A0008E8D9F8D20ED37E040E050E00E941D10B6
:1010B00088A199A1AAA1BBA1820F931FA41FB51F4C
:1010C00088A399A3AAA3BBA36C8D7D8D8E8D9F8DC4
:1010D00028EE33E040E050E00E941D1068A179A1A5
:1010E0008AA19BA10E941D10C901112321F08F81AB
:1010F0009885820F931F0E949202BC0181E70E9493
:10110000C20280929C0090929D00A0929E00B0929C
:101110009F0081E0A3960FB6F894DEBF0FBECDBF4F
:10112000DF91CF911F91FF90EF90DF90CF90BF9014
:10113000AF909F908F90089588EE98E0A0E0B0E087
:1011400058CF288D222309F468CF4B855C856D85A7
:101150007E854C565D4F6F4F7F4F5BCF80E0DACF7F
:101160000F931F93CF93DF93CDB7DEB76B970FB677
:10117000F894DEBF0FBECDBFCE0147960E94530646
:10118000BE016F5F7F4FCE0147960E9470068F8928
:10119000882309F44DC06B857C858D859E856C57B1
:1011A000724F8F4F9F4F298D222309F446C00B8524
:1011B0001C852D853E850E541D4F2F4F3F4F000F30
:1011C000111F221F331F600F711F821F931F2A8D53
:1011D000222361F00F85188929893A890C561D4F01
:1011E0002F4F3F4F600F711F821F931F2B8D2223A4
:1011F00061F00B891C892D893E890A5D1D4F2F4F97
:101200003F4F600F711F821F931F60939C0070936C
:101210009D0080939E0090939F006B960FB6F8946C
:10122000DEBF0FBECDBFDF91CF911F910F9108950B
:1012300066E37BE080E090E0B6CF288D222339F290
:101240000B851C852D853E850C561D4F2F4F3F4F1E
:10125000BACFCF93DF9300D000D00F92CDB7DEB7D7
:10126000682F616080E00E94B0020E945B0F709363
:10127000A2006093A10083E10E94FC0287708D832D
:10128000811125C08091A4009091A500892B99F32C
:101290000E945B0F69837A838B839C838091A1007A
:1012A0009091A20029813A81281B390BC901209114
:1012B000A4003091A50028173907E8F68D810F901A
:1012C0000F900F900F900F90DF91CF91089561E0F4
:1012D0008BE00E94B00260E080E00E94B00231E04A
:1012E0003D83ECCF0F931F93CF93DF93CDB7DEB742
:1012F0002C970FB6F894DEBF0FBECDBF882341F008
:1013000089E80E94FC02682F616089E80E94B002AF
:1013100060E088E80E94B00261E080E80E94B002CC
:1013200061E08FEF0E94B00260E080E00E94B002B6
:1013300081E90E94FC028093A00061E080E00E94AD
:10134000B00260E08FEF0E94B00260E080E80E948F
:10135000B00280E60E94FC02682F626180E60E9473
:10136000B00260E270E084E40E94C2026FEF81E0AC
:101370000E94B002BE01695F7F4FCE0108960E94B5
:10138000B20581110CC080E02C960FB6F894DEBF38
:101390000FBECDBFDF91CF911F910F91089546E011
:1013A000BE016F5F7F4F80EB0E94930361E08FEF80
:1013B0000E94B00260E08FE40E94B0026CE28EE412
:1013C0000E94B00260E08FEF0E94B00264EB86EBF7
:1013D0000E94B0029F8191119CE0B88580E0A0E05E
:1013E00001E010E0482F46954695469550E021E0F3
:1013F00030E02C0F3D1F240F351FF9012081682F8D
:101400006770891710F0BA139FC1E1E0F0E0EC0FAC
:10141000FD1F4E0F5F1FF80102C0EE0FFF1F6A9500
:10142000E2F7BF0160952623FA0120838F5F8033A6
:10143000C9F646E0BE016F5F7F4F80EB0E947203EA
:1014400061E08FEF0E94B00260E080E00E94B00295
:1014500060E08FEF0E94B00260E089E00E94B0027D
:1014600060E080E10E94B00260E081E10E94B00291
:1014700061E084E20E94B0026FEF85E20E94B00258
:1014800060E085E70E94B00261E08FEF0E94B00249
:101490006CE28EE40E94B00260E088E40E94B00238
:1014A00060E280E30E94B00260E08FEF0E94B00231
:1014B00069E080E30E94B00260E084E50E94B0022F
:1014C00064E081E30E94B00263E082E30E94B00224
:1014D00063E880E40E94B00265E286E40E94B00204
:1014E00060E080E60E94B00260E087E20E94B00205
:1014F00066E080E50E94B00260E081E50E94B002F3
:1015000066E982E50E94B00268E086E50E94B002CA
:1015100060E387E50E94B00260E081E60E94B002CD
:1015200060E082E60E94B00260E084E60E94B002C1
:1015300060E085E60E94B00260EA86E60E94B002A2
:1015400061E08FEF0E94B00262E382E20E94B0028B
:1015500064E187E40E94B0026FEF89E40E94B00268
:1015600060E08AE40E94B00260E08FEF0E94B00267
:101570006AE08AE70E94B00260E08BE70E94B00256
:1015800061E288E70E94B00261E08FEF0E94B00242
:1015900064E383E20E94B00260E082E40E94B00251
:1015A0006FEF84E40E94B00266E285E40E94B0021C
:1015B00065E086E40E94B00260E480E40E94B0022C
:1015C00066E08EE00E94B0026AE180E20E94B00212
:1015D00060E483E40E94B00260E08FEF0E94B002FA
:1015E00063E084E30E94B00264E485E30E94B002F9
:1015F00061E08FEF0E94B00264E081E30E94B002DC
:1016000069E08BE40E94B00265E08CE40E94B002C5
:1016100064E08DE40E94B00260E08FEF0E94B002AF
:1016200060E084E40E94B00260E285E40E94B002BF
:1016300068E087E40E94B00268E288E40E94B00299
:1016400060E087E60E94B00264E080E70E94B0029A
:1016500061E081E70E94B0026EEF82E70E94B00273
:1016600060E086E70E94B00260E087E70E94B00277
:1016700061E08FEF0E94B00261E08DE00E94B00255
:1016800060E08FEF0E94B00261E080E80E94B0024B
:1016900068EF81E00E94B00261E08FEF0E94B0022B
:1016A00061E08EE80E94B00261E080E00E94B0023A
:1016B00060E08FEF0E94B00260E080E80E94B0021C
:1016C00064E08AE00E94B00284E80E94FC02682F75
:1016D0006F7E84E80E94B00261E08BE00E94B0025D
:1016E0000E94B00860939C0070939D0080939E00C0
:1016F00090939F0068EE81E00E94B00280919C0070
:1017000090919D00A0919E00B0919F00BC01CD01E1
:101710000E94C50761E081E00E94B00280E40E945F
:101720002909882309F42FCE62E081E00E94B002EB
:1017300080E00E942909882309F425CE68EE81E023
:101740000E94B00281E020CE30E002C0359527959E
:101750006A95E2F720FF6ACEAF5F68CE8F929F92C4
:10176000AF92BF92CF92DF92EF92FF920F931F93AF
:10177000CF93DF93CDB7DEB7A3970FB6F894DEBF54
:101780000FBECDBF7C01162F062F06950150CE014E
:1017900047960E945306BE016F5F7F4FCE0147966A
:1017A0000E947006E114F10409F0B3C0103109F48D
:1017B000AEC040F41C3009F4A8C060E31E3029F02C
:1017C00080E090C060E51231D9F787E50E94B00251
:1017D00068E086E50E94B002602F80E50E94B002BA
:1017E000A12FB0E020E03FE24AE350E00E943F102A
:1017F000DC01CB018C509E4FAF4FBF4F8C8F9D8F24
:10180000AE8FBF8FBC01CD0128EE33E040E050E049
:101810000E941D1049015A016C8D7D8D8E8D9F8D0A
:1018200020ED37E040E050E00E941D1069017A0190
:101830002F85388949895A89A8EEB3E00E943F1064
:10184000DC01CB018C0D9D1DAE1DBF1D8C8F9D8FAE
:10185000AE8FBF8FBC01CD01A50194010E941D1068
:10186000C9010E949202BC0181E50E94C2022B853F
:101870003C854D855E85A8EEB3E00E943F10DC01FB
:10188000CB018C0D9D1DAE1DBF1DBC01CD01A50161
:1018900094010E941D10213091E0390710F020E0E2
:1018A00031E06FEF620F86E40E94B00280919C00ED
:1018B00090919D00A0919E00B0919F00BC01CD0130
:1018C0000E94C50781E00E94FC02182F62E081E0BF
:1018D0000E94B00280E00E942909612F81E00E94ED
:1018E000B00281E0A3960FB6F894DEBF0FBECDBF65
:1018F000DF91CF911F910F91FF90EF90DF90CF90EC
:10190000BF90AF909F908F90089568E15ECF60E4A4
:101910005CCFEA94EF2809F053CF1C3009F4A0C043
:10192000D8F4183051F11A3009F04ACF68E288E44F
:101930000E94B00268E087E40E94B00263E082E3A4
:101940000E94B00269E080E30E94B00261E08FEF84
:101950000E94B00260E226C01E3009F031CF68E478
:1019600088E40E94B00268E087E40E94B00263E06D
:1019700082E30E94B00267E0E6CF60E188E40E9463
:10198000B00268E087E40E94B00262E082E30E9455
:10199000B0026CE080E30E94B00261E08FEF0E9431
:1019A000B00260E380E30E94B00260E08FEF0E942B
:1019B000B002602F80E70E94B002A12FB0E020E0CB
:1019C0003FE24AE350E00E943F10DC01CB018C5023
:1019D0009E4FAF4FBF4F8C8F9D8FAE8FBF8F2B8988
:1019E0003C894D895E89A8EEB3E00E943F1068A350
:1019F00079A38AA39BA36C8D7D8D8E8D9F8D20ED09
:101A000037E040E050E00E941D1088A199A1AAA1F2
:101A1000BBA1820F931FA41FB51F88A399A3AAA3DC
:101A2000BBA36C8D7D8D8E8D9F8D28EE33E040E0C5
:101A300050E00E941D1068A179A18AA19BA10E947B
:101A40001D10C9016A8D662321F08F819885820F50
:101A5000931F0E949202BC0181E70E94C20226CF1E
:101A600068E388E40E94B00268E087E40E94B00264
:101A700063E082E30E94B00268E065CF8AB18861CA
:101A80008AB910BC88E089B9599A08955D9BFECF48
:101A90008CB908959FE9980F963010F487550895F2
:101AA00080538A3008F08FEF08951F93CF93DF9310
:101AB000EC01FE011491112351F0812F0E94460D7B
:101AC0001A3019F48DE00E94460D2196F2CFDF9175
:101AD000CF911F9108958F929F92AF92BF92EF92F4
:101AE000FF920F931F93CF93DF93CDB7DEB72E975F
:101AF0000FB6F894DEBF0FBECDBF6B877C878D8796
:101B00009E878E010F5F1F4F78018AE0882E912CEF
:101B1000A12CB12C8B859C85AD85BE85892B8A2B0C
:101B20008B2B19F4E016F10681F46B857C858D858D
:101B30009E85A50194010E941D10D8016D938D0111
:101B40002B873C874D875E87E5CFF80182918F0117
:101B5000805D0E94460DE016F106B9F72E960FB68D
:101B6000F894DEBF0FBECDBFDF91CF911F910F91D3
:101B7000FF90EF90BF90AF909F908F9008958F92BD
:101B80009F92AF92BF92CF92DF92EF92FF92CF934C
:101B9000DF9300D000D000D0CDB7DEB76B017C0161
:101BA000842F90E09E838D8388248394912C042E2F
:101BB00002C0880C991C0A94E2F791E0891A9108F6
:101BC000092C000CAA08BB08D701CB0104C0B695AC
:101BD000A795979587954A95D2F7BC01CD010E94AC
:101BE0006B0D8EE20E94460DA50194012C213D2132
:101BF0004E215F212115310541055105F1F0AAE083
:101C0000B0E00E943F1069837A838B839C83DC0160
:101C1000CB010D8004C0B695A795979587950A943A
:101C2000D2F7805D0E94460D29813A814B815C810B
:101C3000282139214A215B21DDCF26960FB6F89461
:101C4000DEBF0FBECDBFDF91CF91FF90EF90DF9051
:101C5000CF90BF90AF909F908F900895CF92DF92DA
:101C6000EF92FF92CF93DF936B017C01842F815021
:101C7000990BEC01CC0FDD1FCC0FDD1FD7FD16C07B
:101C8000D701C6010C2E04C0B695A79597958795E8
:101C90000A94D2F78F709927AA27BB2783599F4FA1
:101CA000FC0180810E94460D2497E8CFDF91CF91FF
:101CB000FF90EF90DF90CF900895EF92FF920F93F7
:101CC0001F93CF93DF93CDB7DEB72A970FB6F89463
:101CD000DEBF0FBECDBF8C017B0119821A821B8231
:101CE0001C8289819A818E159F0508F03FC021E1F1
:101CF000E216F10498F08F709927892B79F48DE51D
:101D000090E00E94550D44E069817A818B819C812D
:101D10000E942E0E8AE590E00E94550D09871A87D1
:101D2000A985BA858D91BA87A987282F30E050E020
:101D300040E02D833E834F83588742E06D817E8152
:101D40008F8198850E942E0E88E590E00E94550DA7
:101D500089819A81AB81BC810196A11DB11D8983C6
:101D60009A83AB83BC8309851A85BBCF2A960FB6AD
:101D7000F894DEBF0FBECDBFDF91CF911F910F91C1
:101D8000FF90EF90089511B882E080B9089594EA29
:101D900096BF2FEF3FEF2150310911F481E00895F4
:101DA00006B607FEF8CF91B1987F983011F09031C8
:101DB000A9F783B984E886BF8FEF9FEF019771F38E
:101DC00006B607FEFBCF91B1987F983119F081E0FC
:101DD000903411F480E00895089524EA34E844E949
:101DE00026BF06B607FEFDCF91B1987F983011F05F
:101DF0009031B1F783B936BF06B607FEFDCF91B17A
:101E0000987F903211F0983529F446BF06B604FC4D
:101E1000FDCFE6CF08950C94C70E84E986BF8FEFFF
:101E20009FEF019719F006B604FCFBCF089583B924
:101E300084E886BF8FEF9FEF019751F006B607FE4B
:101E4000FBCF91B1987F81E0983209F480E008954A
:101E500081E0089584EC86BF8FEF9FEF019729F012
:101E600006B607FEFBCF83B1089580E0089584E8AD
:101E700086BF8FEF9FEF019729F006B607FEFBCFD5
:101E800083B1089580E00895CF93C0E08C2F880F30
:101E90000E94C70E0E940D0FCF5FC038B9F7CF91D7
:101EA000089588E083BF83B7856083BF8AE78CBFCE
:101EB00082E089BF0895CF93DF9300D000D0CDB7E3
:101EC000DEB78FB7F8942091A6003091A70040911B
:101ED000A8005091A90029833A834B835C838FBF6C
:101EE00069817A818B819C810F900F900F900F9068
:101EF000DF91CF9108951F921FB61F9211248F93E7
:101F00009F93AF93BF938091A6009091A700A0915B
:101F1000A800B091A9000F96A11DB11D8093A60045
:101F20009093A700A093A800B093A9008091AA0065
:101F30009DE5980F9D3750F49093AA00BF91AF9103
:101F40009F918F911F901FBE1F9018958052809374
:101F5000AA008091A6009091A700A091A800B0913E
:101F6000A9000196A11DB11D8093A6009093A70022
:101F7000A093A800B093A900E1CF00D000D00F92A9
:101F8000CDB7DEB70E9446028BE090E090939700B9
:101F90008093960026E02D83809196009091970083
:101FA0008B35910598F580919600909197000B974D
:101FB00010F436E03D8380919600909197005D810A
:101FC000850F911D57FD9A959093970080939600E9
:101FD0000E94DD0080919600909197009C0150E056
:101FE00040E029833A834B835C83CA01B9010E9494
:101FF0006B0D80E20E94460D3FEF49E658E13150FB
:1020000040405040E1F700C00000C6CF4AEF4D838A
:10201000D2CFAA1BBB1B51E107C0AA1FBB1FA6172B
:10202000B70710F0A61BB70B881F991F5A95A9F781
:1020300080959095BC01CD010895A1E21A2EAA1BAE
:10204000BB1BFD010DC0AA1FBB1FEE1FFF1FA21768
:10205000B307E407F50720F0A21BB30BE40BF50B65
:10206000661F771F881F991F1A9469F760957095EE
:10207000809590959B01AC01BD01CF0108950E9410
:102080005210A59F900DB49F900DA49F800D911D9F
:1020900011240895B7FF0C943F100E943F10821B3B
:1020A000930B0895A29FB001B39FC001A39F700D31
:1020B000811D1124911DB29F700D811D1124911D50
:1020C00008950E94D21008F481E008950E94FE1045
:1020D00088F09F5798F0B92F9927B751B0F0E1F0E9
:1020E000660F771F881F991F1AF0BA95C9F714C099
:1020F000B13091F00E941811B1E008950C941811BC
:10210000672F782F8827B85F39F0B93FCCF38695D1
:1021100077956795B395D9F73EF49095809570952E
:1021200061957F4F8F4F9F4F0895E89409C097FBAB
:102130003EF490958095709561957F4F8F4F9F4F9E
:102140009923A9F0F92F96E9BB279395F6958795E2
:1021500077956795B795F111F8CFFAF4BB0F11F4A5
:1021600060FF1BC06F5F7F4F8F4F9F4F16C088234C
:1021700011F096E911C0772321F09EE8872F762F82
:1021800005C0662371F096E8862F70E060E02AF0C3
:102190009A95660F771F881FDAF7880F96958795AF
:1021A00097F90895990F0008550FAA0BE0E8FEEF84
:1021B00016161706E807F907C0F012161306E4070B
:1021C000F50798F0621B730B840B950B39F40A2604
:1021D00061F0232B242B252B21F408950A2609F4E2
:1021E000A140A6958FEF811D811D089557FD905840
:1021F000440F551F59F05F3F71F04795880F97FBCB
:10220000991F61F09F3F79F0879508951216130684
:102210001406551FF2CF4695F1DF08C016161706B3
:102220001806991FF1CF86957105610508940895E8
:10223000E894BB2766277727CB0197F908950E947A
:10224000D21008F48FEF08950E9437110C94A81152
:102250000E949A1138F00E94A11120F0952311F0EC
:102260000C9491110C94971111240C9419110E9443
:10227000F61070F3959FC1F3950F50E0551F629FC4
:10228000F001729FBB27F00DB11D639FAA27F00DCF
:10229000B11DAA1F649F6627B00DA11D661F829FF6
:1022A0002227B00DA11D621F739FB00DA11D621FDB
:1022B000839FA00D611D221F749F3327A00D611DF8
:1022C000231F849F600D211D822F762F6A2F1124DA
:1022D0009F5750409AF0F1F088234AF0EE0FFF1F0D
:1022E000BB1F661F771F881F91505040A9F79E3F64
:1022F000510580F00C9491110C9419115F3FE4F397
:10230000983ED4F3869577956795B795F795E795B9
:102310009F5FC1F7FE2B880F911D9695879597F9C2
:10232000089597F99F6780E870E060E008959FEF57
:1023300080EC089500240A9416161706180609065C
:10234000089500240A94121613061406050608952B
:10235000092E0394000C11F4882352F0BB0F40F4B3
:10236000BF2B11F460FF04C06F5F7F4F8F4F9F4FF3
:062370000895F894FFCF70
:1023760001143F065B4F666D7D077F6F5230313229
:0E23860033343536373839414243444546003A
:00000001FF
